:020000040800F2
:10000000300800204D610008210500082305000884
:10001000270500082B0500082F0500080000000038
:100020000000000000000000000000003305000890
:1000300035050008000000003705000839050008F4
:100040006761000867610008676100086761000870
:100050006761000867610008E95B000867610008E4
:100060006761000867610008676100086761000850
:100070006761000867610008676100086761000840
:100080006761000867610008676100086761000830
:100090006761000867610008676100086761000820
:1000A0006761000867610008676100086761000810
:1000B0006761000867610008676100086761000800
:1000C00067610008676100086761000867610008F0
:1000D00067610008C3600008676100086761000885
:1000E00067610008676100086761000867610008D0
:1000F00067610008676100086761000867610008C0
:1001000067610008676100086761000867610008AF
:10011000676100086761000867610008676100089F
:10012000676100086761000867610008676100088F
:10013000676100086761000867610008676100087F
:10014000676100086761000867610008676100086F
:10015000676100086761000867610008676100085F
:10016000676100086761000867610008676100084F
:10017000676100086761000867610008676100083F
:10018000676100086761000800F002F800F041F8BC
:100190000AA090E8000C82448344AAF10107DA45E2
:1001A00001D100F036F8AFF2090EBAE80F0013F0F3
:1001B000010F18BFFB1A43F001031847E8B4000011
:1001C00008B50000103A24BF78C878C1FAD85207A1
:1001D00024BF30C830C144BF04680C6070470000C1
:1001E0000023002400250026103A28BF78C1FBD840
:1001F000520728BF30C148BF0B607047782907F00D
:100200008585002070471FB508F028FA1FBD10B57E
:1002100010BD07F033FE1146FFF7F5FF00F008F8B8
:1002200007F051FE03B4FFF7F2FF03BC05F0EAFE4E
:100230002DED048B84B000BF4FF4A06005F0A6FF45
:10024000A82005F05DFE4FF4E13005F0E8FE05F072
:10025000D1FD382005F03EFE05F057FD00F076FA9E
:1002600001F06DF9012000F049FF40F2CF1001F0DC
:1002700034F948F21F409D490880C3E001209CA149
:1002800020221346CDE9002102904FF4C8721E21AE
:10029000084605F0EEF89B4800780028EDD01F20B6
:1002A000C8231A46AA2100901E2004F00CFE1F202D
:1002B0004FF4E673C8224FF48C7100901E2004F0B6
:1002C00002FE914903C907F053FF41EC180B0120CE
:1002D00020210A230222B0EE480AF0EE680ACDE996
:1002E0000010AA211E2005F00EFA8848D0E900214E
:1002F000104607F03DFF41EC190B012020210A2395
:100300000222B0EE490AF0EE690ACDE900104FF47E
:100310008C711E2005F0F7F97C48D0E902211046C7
:1003200007F026FF41EC190B012020210A230222AD
:10033000B0EE490AF0EE690ACDE900104FF49B7166
:100340001E2005F0E0F97148D0E90421104607F0BD
:100350000FFF41EC190B012020210A230222B0EEED
:10036000490AF0EE690ACDE900104FF4AA711E2087
:1003700005F0C9F96548D0E90621104607F0F8FEF6
:1003800041EC190B012020210A230222B0EE490A78
:10039000F0EE690ACDE900104FF4B9711E2005F0A6
:1003A000B2F95A49D1E90821104607F0E1FE41ECC3
:1003B000190B012020210A230222B0EE490AF0EE97
:1003C000690ACDE900104FF4C8711E2005F09BF9B1
:1003D0004E48D0E90A21104607F0CAFE41EC190B3D
:1003E000012020210A230222B0EE490AF0EE690A18
:1003F000CDE900104FF4D7711E2005F084F90020DC
:10040000404908703AE72DE9F0432DED068B95B091
:1004100000241AE03D4800EBC400022306C8002077
:10042000A1FB036902FB039201FB0021DA010346F1
:10043000304607F0B4FB411E4FF00500A1FB000160
:1004400001A941F8240004F10104142CE2DB00248A
:100450001CE001A951F8240007F05FFE41EC1A0BE3
:100460009FED2B0B53EC102B07F004FF41EC190B05
:100470009FED290B53EC102B07F03EFD41EC180BC0
:1004800007F0EEFD01A941F82400641C142CE0DB08
:10049000019DA9B24FF4B97000F034FD002419E0B9
:1004A00001A850F824801FFA88F3661C06EBC607E3
:1004B00007EB06162836B2B2A9B204EBC40606EB67
:1004C00004162836B0B204F08AFD4546072005F030
:1004D00079FD641C142CE3DBA9B24FF4B97000F071
:1004E00011FD15B0BDEC068BBDE8F08320000020A7
:1004F0004578706C6F7265722053544D33324634B8
:10050000000000000800002000000020580000202B
:10051000295C8FC2F528CCBF0000000000A0744009
:10052000704700BFFEE700BFFEE700BFFEE700BF69
:10053000FEE7704770477047704700000CB5002019
:10054000019000907648006840F48030744908605B
:1005500000BF7348006800F4003000900198401C10
:100560000190009818B90198B0F5A04FF1D16C48EE
:10057000006800F4003010B10120009001E000207C
:1005800000900098012846D165484030006840F04E
:1005900080506349403108606248006840F4404040
:1005A000604908605E48083000685D4908310860AD
:1005B0000846006840F4004008600846006840F4BF
:1005C000A05008605848091F0860081F006840F0E4
:1005D0008070091F086000BF5148006800F000707B
:1005E0000028F9D040F20570504908604C480830A6
:1005F000006820F003004A49083108600846006896
:1006000040F00200086000BF45480830006800F074
:100610000C000828F8D10CBD10B54548006840F41E
:100620007000434908603E48006840F001003C49C2
:10063000086000203A4908310860394800683D499F
:100640000840374908603C48091D0860081F0068D9
:1006500020F48020091F0860002031490C31086017
:10066000FFF76CFF4FF0006031498039086010BD22
:1006700070B500200022022300240221284D0835F5
:100680002D6805F00C0020B1042806D0082834D1CC
:1006900007E02A4D2A4E356033E02A4D284E35605A
:1006A0002FE01F4D2D1D2D68C5F380541C4D2D1DB1
:1006B0002D6805F03F0154B1224DB5FBF1F5184E00
:1006C000361D3668C6F3881605FB06F209E01B4D99
:1006D000B5FBF1F5124E361D3668C6F3881605FBDC
:1006E00006F20F4D2D1D2D68C5F301456D1C6B00E5
:1006F000B2FBF3F5124E356003E0104D104E35603D
:1007000000BF00BF064D08352D68C5F303150E4E1A
:10071000705D0B4D2D68C540094E356070BD000001
:10072000003802400070004019544007003C02406D
:1007300088ED00E0FFFFF6FE103000240024F400F6
:100740000C00002040787D01100000201CB5012124
:10075000202006F093FB4FF4C060009001208DF83C
:10076000040000208DF8060003208DF8050001200C
:100770008DF807006946044805F0FEFD4FF4C0619E
:10078000014805F075FE1CBD001402401CB5012196
:10079000402006F073FB01208DF804000220009039
:1007A00001208DF8070000208DF8060003208DF849
:1007B00005006946F74805F0DFFD1CBD01B5BDF831
:1007C00000000090BDF80000F349088008BD01B5A5
:1007D000BDF800000090BDF80000EF49891C0880BA
:1007E00008BD08B5EC48801C00880090BDF80000EA
:1007F00008BDE94A10804FF0D842A2F88010704737
:1008000010B504462046FFF7D9FF052005F092FBFE
:10081000FFF7E7FF10BDE1480089DF490880704716
:10082000DD49891C0880704730B5014601F01F047E
:10083000C1F34513CA0AE50205EB43151544A8B2F6
:1008400030BD00BF011EA0F10102D0B2FAD1704745
:1008500030B504460D46D148808849F2413188427E
:1008600005D0CE48808845F21031884214D1CB495A
:100870004889FFF7A3FF2012FFF7A9FFE0B2FFF7B7
:10088000A6FFC6498889FFF799FF2812FFF79FFF47
:10089000E8B2FFF79CFFABE0C048808846F6040151
:1008A00088421DD1BD488079012804D1BB48008809
:1008B000401E001B84B2B9494889FFF77FFF201210
:1008C000FFF785FFE0B2FFF782FFB4498889FFF7A1
:1008D00075FF2812FFF77BFFE8B2FFF778FF87E08C
:1008E000AE48808841F66311884247D1AB48807991
:1008F000A8B9AA480088401E001B84B2A7494889AD
:10090000FFF75CFF0020FFF762FF0020FFF75FFFAB
:100910002012FFF75CFFE0B2FFF759FF16E09F4996
:100920004889FFF74BFF2012FFF751FFE0B2FFF7B6
:100930004EFF9A490988491EC1F30F20FFF747FF70
:1009400096490978491EC8B2FFF741FF9349888943
:10095000FFF734FF2812FFF73AFFE8B2FFF737FF3F
:100960008E494988491EC1F30F20FFF730FF8B499C
:100970008978491EC8B2FFF72AFF39E08748808886
:1009800045F21051884220D184494889FFF716FF6B
:100990002012FFF71CFF81494989491C88B2FFF7E3
:1009A0000DFFE0B2FFF713FF7C498889FFF706FFD0
:1009B0002812FFF70CFF79498989491C88B2FFF793
:1009C000FDFEE8B2FFF703FF12E0744880790128CA
:1009D00004D172480088401E001B84B26F494889C8
:1009E0002146FFF706FF6D4988892946FFF701FF79
:1009F00030BD2DE9F04105460E4600240027A046F3
:100A000066480088A84203DD64484088B04202DCA2
:100A10000020BDE8F08131462846FFF719FF5F4806
:100A2000808849F24131884211D05C48808846F67E
:100A3000040188420BD05948808845F21031884221
:100A400005D05648808841F66311884203D12E2094
:100A5000FFF7B4FE0DE05148808845F210518842FE
:100A600004D14FF43850FFF7A9FE02E02220FFF72F
:100A7000A5FE4A48808849F22031884202D10220EE
:100A8000FFF7DFFEFFF7ADFE04464448808841F6DD
:100A90006311884201D12046BBE70220FFF7D1FE57
:100AA000FFF79FFE04463D48808849F24131884265
:100AB0000BD03A48808845F21031884205D037483B
:100AC000808845F2105188420AD10220FFF7B9FE12
:100AD000FFF787FE8046E7B24FF6FF7000EA072770
:100AE0002E48808849F22531884216D02B488088CC
:100AF00044F23551884210D028488088091F884226
:100B00000BD0264880884BF20551884205D02348F7
:100B100080884CF20551884201D1204679E71F4870
:100B2000808849F2413188420BD01C48808845F2C8
:100B30001031884205D01948808845F2105188420A
:100B400007D1E012C002B91240EA411040EAE820A1
:100B50005FE72046FFF768FE5BE700B50F48808837
:100B600049F24131884211D00C48808846F6040190
:100B700088420BD00948808845F21031884205D060
:100B80000648808841F66311884209D12920FFF781
:100B900015FE15E0001802407E00006CF8000020F1
:100BA000FE48808845F21051884204D14FF4245009
:100BB000FFF704FE04E040F273110720FFF719FE6F
:100BC00000BD00B5F548808849F24131884211D016
:100BD000F248808846F6040188420BD0EF488088AE
:100BE00045F21031884205D0EC48808841F6631107
:100BF000884203D12820FFF7E1FD0EE0E748808816
:100C000045F21051884204D14FF42050FFF7D6FD31
:100C100003E000210720FFF7ECFD00BDF0B505461D
:100C200000240027DD48807901280BD1DB4880882B
:100C300046F60401884205D0D848808841F6631101
:100C4000884208D1D5488079F0B9D448808841F6E7
:100C50006311884218D1082D15D2DFE805F004068B
:100C6000080A0C0E101206250DE007250BE00425DE
:100C700009E0052507E0012505E0002503E003253F
:100C800001E0022500BF00BFC448808849F241311D
:100C9000884217D0C148808846F60401884211D0A6
:100CA000BE48808845F2103188420BD0BB4880880E
:100CB00045F21051884205D0B848808841F663114A
:100CC00088427DD1082D1CD2DFE805F00406090C0E
:100CD0000F12151800BF14E044F0800411E044F036
:100CE00040040EE044F0C0040BE044F0200408E0AF
:100CF00044F0600405E044F0A00402E044F0E004A5
:100D000000BF00BFA548808845F21051884202D13B
:100D10004FF4585700E03627A048808845F210313C
:100D200088420DD09D48808845F21051884207D0F6
:100D30009A48808841F66311884201D044F0080443
:100D40009648808846F60401884201D144F00204A6
:100D500021463846FFF74DFD9048808841F66311E3
:100D600088421DD004F0200068B18C4800888B496F
:100D70004988884214DA894806884088874908806B
:100D8000084646800CE085480088844949888842A6
:100D900006DD8248068840888049088008464680EB
:100DA0007E48808845F21051884254D17B49488959
:100DB000FFF704FD0020FFF70AFD7849498900E0AC
:100DC00078E0491C88B2FFF7F9FC0020FFF7FFFC30
:100DD00072494989891C88B2FFF7F0FC6F4909887C
:100DE000491EC1F30F20FFF7F2FC6C494989C91C69
:100DF00088B2FFF7E3FC69490978491EC8B2FFF7DA
:100E0000E6FC66498889FFF7D9FC0020FFF7DFFC84
:100E100062498989491C88B2FFF7D0FC0020FFF79E
:100E2000D6FC5E498989891C88B2FFF7C7FC5B49FB
:100E30004988491EC1F30F20FFF7C9FC574989892A
:100E4000C91C88B2FFF7BAFC54498978491EC8B258
:100E5000FFF7BDFC55E051494889FFF7AFFC002082
:100E6000FFF7B5FC0020FFF7B2FC4C490988491E8A
:100E7000C1F30F20FFF7ABFC48490978491EC8B2FF
:100E8000FFF7A5FC45498889FFF798FC0020FFF78C
:100E90009EFC0020FFF79BFC40494988491EC1F396
:100EA0000F20FFF794FC3D498978491EC8B2FFF72F
:100EB0008EFC26E0082D1CD2DFE805F004070A0DA1
:100EC0000F12151844F0300413E044F0100410E041
:100ED00044F020040DE000BF0BE044F0380408E0CB
:100EE00044F0280405E044F0180402E044F008044B
:100EF00000BF00BF032744F4805421463846FFF763
:100F000078FCF0BD30B504460D4629462046FFF773
:100F10009FFCFFF780FC224800882249088030BDF2
:100F200070B504460D4616461C48808849F241318A
:100F3000884205D01948808845F21031884214D182
:100F400016494889FFF73AFC2012FFF740FCE0B24F
:100F5000FFF73DFC11498889FFF730FC2812FFF7A5
:100F600036FCE8B2FFF733FC93E00C48808845F28A
:100F70001051884227D109494889FFF71FFC2012E8
:100F8000FFF725FC05494989491C88B2FFF716FC83
:100F9000E0B2FFF71CFC0149888905E0F800002059
:100FA000200000208000006CFFF708FC2812FFF7EB
:100FB0000EFCFE498989491C88B2FFF7FFFBE8B2A5
:100FC000FFF705FC65E0F948808841F66311884227
:100FD00028D1F648807920B9F4480088401E001BCB
:100FE00084B2F2494889FFF7E9FB2012FFF7EFFBD3
:100FF000E0B2FFF7ECFB2012FFF7E9FBE0B2FFF7EE
:10100000E6FBEA498889FFF7D9FB2812FFF7DFFBE7
:10101000E8B2FFF7DCFB2812FFF7D9FBE8B2FFF7D5
:10102000D6FB36E0E148808846F6040188421DD1AF
:10103000DE488079012804D1DC480088401E001B6E
:1010400084B2DA494889FFF7B9FB2012FFF7BFFBEA
:10105000E0B2FFF7BCFBD5498889FFF7AFFB281248
:10106000FFF7B5FBE8B2FFF7B2FB12E0CF4880799B
:10107000012804D1CD480088401E001B84B2CB4912
:1010800048892146FFF7B5FBC84988892946FFF7FB
:10109000B0FBC6480089C64908804FF0D840A0F888
:1010A000806070BD70B52DED048B0446BE20FFF747
:1010B00085FB0520FFF78BFB204607F045F841EC48
:1010C000190B9FEDBC0B53EC102B07F0D3F841EC40
:1010D000180B06F0F5FF85B22846FFF778FB0120D4
:1010E000FFF775FBFF20FFF772FB0020FFF76FFB98
:1010F0000020FFF76CFBBDEC048B70BD10B50446FF
:10110000002C66D1A9498871F02008804FF4A070A6
:1011100048800846808849F2413188420BD0A34874
:10112000808846F60401884205D0A048808845F2B0
:10113000103188421AD12C209C4908812A204881EC
:101140002B2088810846808846F60401884205D015
:101150009648808845F21031884206D14FF4A0703D
:10116000924908804FF4F0704880A1E08F48808851
:1011700045F21051884210D14FF430508B4908810C
:101180004FF4285048814FF42C5088814FF4F07070
:1011900008804FF4487048808AE08448808841F68F
:1011A000631188420DD12C20804908812B20488171
:1011B0002A2088814FF4F07008804FF448704880EE
:1011C00076E02220794908812020488121208881E9
:1011D0006EE00120754988714FF4A0700880F020FE
:1011E00048800846808849F24131884205D06F48DE
:1011F000808845F21031884207D12C206B49088144
:101200002A2048812B2088813FE06848808846F664
:101210000401884207D12C20644908812B20488191
:101220002A20888131E06148808845F21051884247
:1012300010D14FF430505D4908814FF42850488157
:101240004FF42C5088814FF4487008804FF4F070B0
:1012500048801AE05548808841F6631188420DD1D4
:101260002C20524908812A2048812B2088814FF464
:10127000487008804FF4F070488006E022204B4907
:10128000088121204881202088814848808846F6AE
:101290000401884205D04548808845F210318842D3
:1012A00006D14FF4F070414908804FF4A070488097
:1012B0000020FFF7B3FC10BD2DE9F04F86B00446C7
:1012C0000D469046994604EB0800401E86B205EB99
:1012D0000900401E87B23548808849F24131884272
:1012E00015D03248808845F2103188420FD02F48FF
:1012F000808846F60401884209D02C48807901286C
:1013000026D12A48808841F66311884220D1274996
:101310004889FFF753FA2012FFF759FAE0B2FFF7B6
:1013200056FA3012FFF753FAF0B2FFF750FA1F499E
:101330008889FFF743FA2812FFF749FAE8B2FFF766
:1013400046FA3812FFF743FAF8B2FFF740FAC1E065
:101350001648808841F6631188423DD113480088C1
:10136000A0EB0800001B84B205EB0900401E1FFA29
:1013700080F90E494889FFF721FA2012FFF727FA72
:10138000E0B2FFF724FA04EB0801491EC1F30F2075
:10139000FFF71DFA04EB0801491EC8B2FFF717FA60
:1013A00002498889FFF70AFA281207E0F8000020AE
:1013B0007E00006C6666666666660440FFF707FAA4
:1013C000E8B2FFF704FA4FEA2920FFF700FA09F024
:1013D000FF00FFF7FCF97DE0FE48808845F21051E0
:1013E000884244D1FB494889FFF7E8F92012FFF70A
:1013F000EEF9F8494989491C88B2FFF7DFF9E0B2F4
:10140000FFF7E5F9F3494989891C88B2FFF7D6F956
:101410003012FFF7DCF9EF494989C91C88B2FFF7A0
:10142000CDF9F0B2FFF7D3F9EA498889FFF7C6F999
:101430002812FFF7CCF9E7498989491C88B2FFF7E0
:10144000BDF9E8B2FFF7C3F9E2498989891C88B27E
:10145000FFF7B4F93812FFF7BAF9DE498989C91CD8
:1014600088B2FFF7ABF9F8B2FFF7B1F932E0D9482B
:10147000807901280ED1AA46BB46D6480088801B39
:10148000401E80B20190D3480088001B401E80B2ED
:10149000009003E0A246B3460195009750200590C6
:1014A00051200490522003905320029051460598F9
:1014B000FFF79FF959460498FFF79BF901990398A4
:1014C000FFF797F900990298FFF793F9294620460C
:1014D000FFF7BEF906B0BDE8F08F70B504460026F0
:1014E000BC48058840884543BA48808846F60401D0
:1014F000884216D1B7488079012812D10020B54919
:1015000088712A2048812B20888100210846FFF716
:101510009FF90120AF4988712B2048812A208881BA
:1015200003E000210846FFF793F9FFF774F900265E
:1015300002E0A9480480761CAE42FAD370BD00B523
:10154000A1B00020209001217A2005F097FC012114
:10155000084605F0CBFC4FF400401E9001208DF8AA
:101560007C0000208DF87E0002208DF87D00012097
:101570008DF87F001EA9994804F0FEFE4CF23370EE
:101580001E9002208DF87C0000208DF87E00032044
:101590008DF87D0001208DF87F001EA9904804F091
:1015A000EBFE4FF680701E9002208DF87C0000202C
:1015B0008DF87E0003208DF87D0001208DF87F00DE
:1015C0001EA9884804F0D8FE4FF480501E900220D7
:1015D0008DF87C0000208DF87E0003208DF87D00C2
:1015E00001208DF87F001EA97F4804F0C5FE4FF44E
:1015F00080501E9002208DF87C0000208DF87E0027
:1016000003208DF87D0001208DF87F001EA977480A
:1016100004F0B2FE0C220021714804F038FF0C22C5
:1016200001216F4804F033FF0C2204216C4804F0C0
:101630002EFF0C2205216A4804F029FF0C22082104
:10164000674804F024FF0C220921654804F01FFFBD
:101650000C220A21624804F01AFF0C220E21604875
:1016600004F015FF0C220F215D4804F010FF0C223E
:1016700007215C4804F00BFF0C220821594804F0B4
:1016800006FF0C220921574804F001FF0C220A2111
:10169000544804F0FCFE0C220B21524804F0F7FEE3
:1016A0000C2211464F4804F0F2FE0C220D214D4849
:1016B00004F0EDFE0C220E214A4804F0E8FE0C2254
:1016C0000F21484804F0E3FE0C221146464804F07E
:1016D000DEFE0C221146454804F0D9FE0F2008908A
:1016E000002009903C200A9000200B900C900D9057
:1016F0000E90092001900020029008200390002005
:10170000049005900690079006200F9000201090FE
:1017100011901020129000201390159014901690A4
:1017200017904FF480501890002019904FF480408B
:101730001A9000201B9008A81C9001A81D900FA8CB
:1017400004F0F9FE0121062004F080FFFFF71EF8E7
:101750000221264804F08CFE0A2004F033FC02210A
:10176000224804F087FE0A2004F02CFC02211F48C6
:1017700004F07EFE322004F025FC01210020FFF75A
:1017800038F8322004F01EFC0020FFF739F8114928
:10179000888008468088FF280ADB084680884FF644
:1017A000FF71884204D00B488088B0F5134F7DD17B
:1017B000D320FFF703F8FFF714F806498880FFF7F6
:1017C00010F804498880FFF70CF802498880084621
:1017D00080880DE0F80000208000006C00040240CA
:1017E000000C0240001002400014024000180240A9
:1017F0004FF6FF7101EA0020FE498880FEF7F1FFF5
:10180000FC4989880843FB4988800846808849F25A
:10181000413188424AD0BF20FEF7D0FFFEF7E1FFFA
:10182000F4498880FEF7DDFFF2498880FEF7D9FF92
:10183000F0498880FEF7D5FFEE4988800846808809
:101840004FF6FF7101EA0020EA498880FEF7C9FFE0
:10185000E84989880843E74988800846808846F631
:10186000040188427AD0D420FEF7A8FFFEF7B9FF22
:10187000E0498880FEF7B5FFDE498880FEF7B1FFBA
:10188000DC498880084680884FF6FF7101EA002015
:10189000D8498880FEF7A5FFD64989880843D549ED
:1018A00088800846808845F2103100E056E0884282
:1018B00054D04FF45A40FEF781FFFEF792FFCD4916
:1018C00088804FF45B40FEF779FFFEF78AFFC94935
:1018D0008880084680884FF6FF7101EA0020C549DC
:1018E00088804FF45C40FEF769FFFEF77AFFC1493C
:1018F00089880843BF49888008468088B0F5004F32
:1019000002D145F210508880BA48808845F21051C3
:10191000884223D0A120FEF751FFFEF762FFB549B0
:101920008880FEF75EFFB3498880084680884FF6BE
:10193000FF7101EA0020AF498880FEF752FFAD49F0
:1019400089880843AB4988800846808845F26171E0
:10195000884203D141F66310A6498880A548808853
:1019600049F24131884211D0A248808845F21031B5
:1019700088420BD09F48808845F21051884205D09C
:101980009C48808841F6631188421DD19A480068BE
:1019900020F00F004FF02041C1F81C010846D0F89C
:1019A0001C0120F47060C1F81C010846D0F81C012D
:1019B00040F00300C1F81C010846D0F81C0140F4B7
:1019C0000070C1F81C0128E08A48808846F60401AE
:1019D000884205D0874880884CF2055188421CD146
:1019E0008548006820F00F004FF02041C1F81C012D
:1019F0000846D0F81C0120F47060C1F81C010846AC
:101A0000D0F81C0140F00A00C1F81C010846D0F8CB
:101A10001C0140F44060C1F81C017648818877A021
:101A200006F034F97348808849F2413188427CD10C
:101A3000CF20FEF7C3FE0020FEF7C9FEC120FEF74F
:101A4000C6FE3020FEF7C3FEED20FEF7B7FE642091
:101A5000FEF7BDFE0320FEF7BAFE1220FEF7B7FE2A
:101A60008120FEF7B4FEE820FEF7A8FE8520FEF7F1
:101A7000AEFE1020FEF7ABFE7A20FEF7A8FECB20CC
:101A8000FEF79CFE3920FEF7A2FE2C20FEF79FFEFB
:101A90000020FEF79CFE3420FEF799FE0220FEF7A0
:101AA00096FEF720FEF78AFE2020FEF790FEEA2041
:101AB000FEF784FE0020FEF78AFE0020FEF787FE78
:101AC000C020FEF77BFE1B20FEF781FEC120FEF743
:101AD00075FE0120FEF77BFEC520FEF76FFE30206D
:101AE000FEF775FE3020FEF772FEC720FEF766FE99
:101AF000B720FEF76CFE3620FEF760FE4820FEF7AA
:101B000066FE3A20FEF75AFE5520FEF760FEB12031
:101B1000FEF754FE0020FEF75AFE1A20FEF757FE8D
:101B2000B620FEF74BFE0A2000E0A6E0FEF74FFECF
:101B3000A220FEF74CFEF220FEF740FE0020FEF74A
:101B400046FE2620FEF73AFE0120FEF740FEE0208A
:101B5000FEF734FE0F20FEF73AFE2A20FEF737FE8E
:101B60002820FEF734FE0820FEF731FE0E20FEF797
:101B70002EFE0820FEF72BFE5420FEF728FEA9209B
:101B8000FEF725FE4320FEF722FE0A20FEF71FFE89
:101B90000F20FEF71CFE0020FEF719FE0020FEF7C6
:101BA00016FE0020FEF713FE0020FEF710FEE120D7
:101BB000FEF704FE0020FEF70AFE1520FEF707FEE2
:101BC0001720FEF704FE0720FEF701FE1120FEF7A6
:101BD000FEFD0620FEF7FBFD2B20FEF7F8FD56204C
:101BE000FEF7F5FD3C20FEF7F2FD0520FEF7EFFDC8
:101BF00010200BE0F80000201C0100A0204C434402
:101C00002049443A25780D0A00000000FEF7DFFD68
:101C10000F20FEF7DCFD3F20FEF7D9FD3F20FEF749
:101C2000D6FD0F20FEF7D3FD2B20FEF7C7FD0020C9
:101C3000FEF7CDFD0020FEF7CAFD0120FEF7C7FD2F
:101C40003F20FEF7C4FD2A20FEF7B8FD0020FEF776
:101C5000BEFD0020FEF7BBFD0020FEF7B8FDEF2023
:101C6000FEF7B5FD1120FEF7A9FD782004F0AAF9D2
:101C70002920FEF7A3FD03F01DB9FE48808846F633
:101C8000040188427ED11120FEF798FD142004F053
:101C900099F9D020FEF792FD0720FEF798FD42202B
:101CA000FEF795FD1D20FEF792FDD120FEF786FD83
:101CB0000020FEF78CFD1A20FEF789FD0920FEF7B3
:101CC00086FDD220FEF77AFD0120FEF780FD22205E
:101CD000FEF77DFDC020FEF771FD1020FEF777FDB9
:101CE0003B20FEF774FD0020FEF771FD0220FEF799
:101CF0006EFD1120FEF76BFDC520FEF75FFD032092
:101D0000FEF765FDC820FEF759FD0020FEF75FFDD8
:101D10002520FEF75CFD2120FEF759FD0520FEF78A
:101D200056FD0020FEF753FD0A20FEF750FD65200A
:101D3000FEF74DFD2520FEF74AFD7720FEF747FD13
:101D40005020FEF744FD0F20FEF741FD0020FEF776
:101D50003EFDF820FEF732FD0120FEF738FDFE20A3
:101D6000FEF72CFD0020FEF732FD0220FEF72FFDCE
:101D70002020FEF723FD3620FEF720FD0820FEF789
:101D800026FD00E02AE03A20FEF718FD5520FEF778
:101D90001EFD2B20FEF712FD0020FEF718FD00208F
:101DA000FEF715FD0120FEF712FD3F20FEF70FFDA7
:101DB0002A20FEF703FD0020FEF709FD0020FEF7B4
:101DC00006FD0120FEF703FDDF20FEF700FD782071
:101DD00004F0F8F82920FEF7F1FC4CE7A5488088CC
:101DE00045F21031884240F07C87ED20FEF7E6FC9A
:101DF0000120FEF7ECFCFE20FEF7E9FCEE20FEF7EA
:101E0000DDFCDE20FEF7E3FC2120FEF7E0FCF12004
:101E1000FEF7D4FC0120FEF7DAFCDF20FEF7CEFC53
:101E20001020FEF7D4FCC420FEF7C8FC8F20FEF77C
:101E3000CEFCC620FEF7C2FC0020FEF7C8FCE22064
:101E4000FEF7C5FCE220FEF7C2FCE220FEF7BFFC75
:101E5000BF20FEF7B3FCAA20FEF7B9FCB020FEF7C6
:101E6000ADFC0D20FEF7B3FC0020FEF7B0FC0D200A
:101E7000FEF7ADFC0020FEF7AAFC1120FEF7A7FC40
:101E80000020FEF7A4FC1920FEF7A1FC0020FEF7BD
:101E90009EFC2120FEF79BFC0020FEF798FC2D20E5
:101EA000FEF795FC0020FEF792FC3D20FEF78FFC2C
:101EB0000020FEF78CFC5D20FEF789FC0020FEF779
:101EC00086FC5D20FEF783FC0020FEF780FCB1203D
:101ED000FEF774FC8020FEF77AFC0020FEF777FC0A
:101EE0008B20FEF774FC0020FEF771FC9620FEF7B5
:101EF0006EFC0020FEF76BFCB220FEF75FFC0020BA
:101F0000FEF765FC0020FEF762FC0220FEF75FFC96
:101F10000020FEF75CFC0320FEF759FC0020FEF7D2
:101F200056FCB320FEF74AFC0020FEF750FC0020D0
:101F3000FEF74DFC0020FEF74AFC0020FEF747FCB0
:101F40000020FEF744FC0020FEF741FC0020FEF7D5
:101F50003EFC0020FEF73BFC0020FEF738FC002092
:101F6000FEF735FC0020FEF732FC0020FEF72FFCC8
:101F70000020FEF72CFC0020FEF729FC0020FEF7D5
:101F800026FC0020FEF723FC0020FEF720FC0020AA
:101F9000FEF71DFC0020FEF71AFC0020FEF717FCE0
:101FA0000020FEF714FC0020FEF711FC0020FEF7D5
:101FB0000EFC0020FEF70BFCB420FEF7FFFB8B208D
:101FC000FEF705FC0020FEF702FC9620FEF7FFFB63
:101FD0000020FEF7FCFBA120FEF7F9FB0020FEF736
:101FE000F6FBB520FEF7EAFB0220FEF7F0FB00202F
:101FF000FEF7EDFB0320FEF7EAFB0020FEF7E7FB10
:102000000420FEF7E4FB0020FEF7E1FBB620FEF71C
:10201000D5FB0020FEF7DBFB0020FEF7D8FBB72046
:10202000FEF7CCFB0020FEF7D2FB0020FEF7CFFB33
:102030003F20FEF7CCFB0020FEF7C9FB5E20FEF739
:10204000C6FB0020FEF7C3FB6420FEF7C0FB0020A8
:10205000FEF7BDFB8C20FEF7BAFB0020FEF7B7FBB6
:10206000AC20FEF7B4FB0020FEF7B1FBDC20FEF74E
:10207000AEFB01E0F80000200020FEF7A8FB702076
:10208000FEF7A5FB0020FEF7A2FB9020FEF79FFBCA
:102090000020FEF79CFBEB20FEF799FB0020FEF7EB
:1020A00096FBDC20FEF793FB0020FEF790FBB820A8
:1020B000FEF784FB0020FEF78AFB0020FEF787FB7B
:1020C0000020FEF784FB0020FEF781FB0020FEF7D6
:1020D0007EFB0020FEF77BFB0020FEF778FB002054
:1020E000FEF775FBBA20FEF769FB2420FEF76FFBB5
:1020F0000020FEF76CFB0020FEF769FB0020FEF7D6
:1021000066FBC120FEF75AFB2020FEF760FB002093
:10211000FEF75DFB5420FEF75AFB0020FEF757FB4D
:10212000FF20FEF754FB0020FEF751FBC220FEF714
:1021300045FB0A20FEF74BFB0020FEF748FB04207E
:10214000FEF745FB0020FEF742FBC320FEF736FBFF
:102150003C20FEF73CFB0020FEF739FB3A20FEF75F
:1021600036FB0020FEF733FB3920FEF730FB002062
:10217000FEF72DFB3720FEF72AFB0020FEF727FB9A
:102180003C20FEF724FB0020FEF721FB3620FEF763
:102190001EFB0020FEF71BFB3220FEF718FB002081
:1021A000FEF715FB2F20FEF712FB0020FEF70FFBBA
:1021B0002C20FEF70CFB0020FEF709FB2920FEF780
:1021C00006FB0020FEF703FB2620FEF700FB0020A5
:1021D000FEF7FDFA2420FEF7FAFA0020FEF7F7FAE0
:1021E0002420FEF7F4FA0020FEF7F1FA2320FEF790
:1021F000EEFA0020FEF7EBFA3C20FEF7E8FA0020AA
:10220000FEF7E5FA3620FEF7E2FA0020FEF7DFFAE5
:102210003220FEF7DCFA0020FEF7D9FA2F20FEF775
:10222000D6FA0020FEF7D3FA2C20FEF7D0FA0020D1
:10223000FEF7CDFA2920FEF7CAFA0020FEF7C7FA0A
:102240002620FEF7C4FA0020FEF7C1FA2420FEF78C
:10225000BEFA0020FEF7BBFA2420FEF7B8FA0020F1
:10226000FEF7B5FA2320FEF7B2FA0020FEF7AFFA28
:10227000C420FEF7A3FA6220FEF7A9FA0020FEF7B9
:10228000A6FA0520FEF7A3FA0020FEF7A0FA8420A4
:10229000FEF79DFA0020FEF79AFAF020FEF797FA73
:1022A0000020FEF794FA1820FEF791FA0020FEF7BE
:1022B0008EFAA420FEF78BFA0020FEF788FA182089
:1022C000FEF785FA0020FEF782FA5020FEF77FFA2B
:1022D0000020FEF77CFA0C20FEF779FA0020FEF7CA
:1022E00076FA1720FEF773FA0020FEF770FA9520B1
:1022F000FEF76DFA0020FEF76AFAF320FEF767FAA0
:102300000020FEF764FAE620FEF761FA0020FEF7EF
:102310005EFAC520FEF752FA3220FEF758FA002086
:10232000FEF755FA4420FEF752FA0020FEF74FFA66
:102330006520FEF74CFA0020FEF749FA7620FEF7FA
:1023400046FA0020FEF743FA8820FEF740FA002004
:10235000FEF73DFAC620FEF731FA2020FEF737FAE5
:102360000020FEF734FA1720FEF731FA0020FEF7BE
:102370002EFA0120FEF72BFA0020FEF728FAC720DC
:10238000FEF71CFA0020FEF722FA0020FEF71FFAE3
:102390000020FEF71CFA0020FEF719FAC820FEF70D
:1023A0000DFA0020FEF713FA0020FEF710FA0020C5
:1023B000FEF70DFA0020FEF70AFAC920FEF7FEF933
:1023C0000020FEF704FA0020FEF701FA0020FEF7D5
:1023D000FEF90020FEF7FBF90020FEF7F8F90020D7
:1023E000FEF7F5F90020FEF7F2F90020FEF7EFF90D
:1023F0000020FEF7ECF90020FEF7E9F90020FEF7D7
:10240000E6F90020FEF7E3F90020FEF7E0F90020EE
:10241000FEF7DDF90020FEF7DAF90020FEF7D7F924
:10242000E020FEF7CBF91620FEF7D1F90020FEF7E9
:10243000CEF91C20FEF7CBF90020FEF7C8F92120C9
:10244000FEF7C5F90020FEF7C2F93620FEF7BFF906
:102450000020FEF7BCF94620FEF7B9F90020FEF790
:10246000B6F95220FEF7B3F90020FEF7B0F9642068
:10247000FEF7ADF90020FEF7AAF97A20FEF7A7F9DA
:102480000020FEF7A4F98B20FEF7A1F90020FEF74B
:102490009EF99920FEF79BF90020FEF798F9A820F5
:1024A000FEF795F90020FEF792F9B920FEF78FF9B3
:1024B0000020FEF78CF9C420FEF789F90020FEF712
:1024C00086F9CA20FEF783F90020FEF780F9D220B2
:1024D000FEF77DF90020FEF77AF9D920FEF777F9AB
:1024E0000020FEF774F9E020FEF771F90020FEF7F6
:1024F0006EF9F320FEF76BF90020FEF768F9E12092
:10250000FEF75CF91620FEF762F90020FEF75FF98E
:102510001C20FEF75CF90020FEF759F92220FEF797
:1025200056F90020FEF753F93620FEF750F9002047
:10253000FEF74DF94520FEF74AF90020FEF747F96E
:102540005220FEF744F90020FEF741F96420FEF71F
:102550003EF90020FEF73BF97A20FEF738F900201B
:10256000FEF735F98B20FEF732F90020FEF72FF940
:102570009920FEF72CF90020FEF729F9A820FEF794
:1025800026F90020FEF723F9B920FEF720F90020F4
:10259000FEF71DF9C420FEF71AF90020FEF717F91F
:1025A000CA20FEF714F90020FEF711F9D220FEF739
:1025B0000EF90020FEF70BF9D820FEF708F90020ED
:1025C000FEF705F9E020FEF702F90020FEF7FFF81C
:1025D000F320FEF7FCF80020FEF7F9F8E220FEF702
:1025E000EDF80520FEF7F3F80020FEF7F0F80B20D9
:1025F000FEF7EDF80020FEF7EAF81B20FEF7E7F8FB
:102600000020FEF7E4F83420FEF7E1F80020FEF7A2
:10261000DEF84420FEF7DBF80020FEF7D8F84F2064
:10262000FEF7D5F80020FEF7D2F86120FEF7CFF8CC
:102630000020FEF7CCF87920FEF7C9F80020FEF75D
:10264000C6F88820FEF7C3F80020FEF7C0F89720F0
:10265000FEF7BDF80020FEF7BAF8A620FEF7B7F89F
:102660000020FEF7B4F8B720FEF7B1F80020FEF71F
:10267000AEF8C220FEF7ABF80020FEF7A8F8C7209E
:10268000FEF7A5F80020FEF7A2F8D120FEF79FF88C
:102690000020FEF79CF8D620FEF799F80020FEF700
:1026A00096F8DD20FEF793F80020FEF790F8F3206F
:1026B000FEF78DF80020FEF78AF8E320FEF77EF89B
:1026C0000520FEF784F80020FEF781F80A20FEF7C7
:1026D0007EF80020FEF77BF81C20FEF778F800203B
:1026E000FEF775F83320FEF772F80020FEF76FF85A
:1026F0004420FEF76CF80020FEF769F85020FEF742
:1027000066F80020FEF763F86220FEF760F800200C
:10271000FEF75DF87820FEF75AF80020FEF757F82C
:102720008820FEF754F80020FEF751F89720FEF7B6
:102730004EF80020FEF74BF8A620FEF748F80020E0
:10274000FEF745F8B720FEF742F80020FEF73FF805
:10275000C220FEF73CF80020FEF739F8C720FEF74C
:1027600036F80020FEF733F8D120FEF730F80020CD
:10277000FEF72DF8D520FEF72AF80020FEF727F8FF
:10278000DD20FEF724F80020FEF721F8F320FEF705
:102790001EF80020FEF71BF8E420FEF70FF80120DA
:1027A000FEF715F80020FEF712F80120FEF70FF8EB
:1027B0000020FEF70CF80220FEF709F80020FEF7D3
:1027C00006F82A20FEF703F80020FEF700F83C2068
:1027D000FDF7FDFF0020FDF7FAFF4B20FDF7F7FFA7
:1027E0000020FDF7F4FF5D20FDF7F1FF0020FDF76D
:1027F000EEFF7420FDF7EBFF0020FDF7E8FF8420DB
:10280000FDF7E5FF0020FDF7E2FF9320FDF7DFFF76
:102810000020FDF7DCFFA220FDF7D9FF0020FDF727
:10282000D6FFB320FDF7D3FF0020FDF7D0FFBE2079
:10283000FDF7CDFF0020FDF7CAFFC420FDF7C7FF5D
:102840000020FDF7C4FFCD20FDF7C1FF0020FDF7FC
:10285000BEFFD320FDF7BBFF0020FDF7B8FFDD2052
:10286000FDF7B5FF0020FDF7B2FFF320FDF7AFFF46
:102870000020FDF7ACFFE520FDF7A0FF0020FDF7ED
:10288000A6FF0020FDF7A3FF0020FDF7A0FF00201A
:10289000FDF79DFF0220FDF79AFF0020FDF797FF4F
:1028A0002920FDF794FF0020FDF791FF3C20FDF764
:1028B0008EFF0020FDF78BFF4B20FDF788FF0020E7
:1028C000FDF785FF5D20FDF782FF0020FDF77FFF0C
:1028D0007420FDF77CFF0020FDF779FF8420FDF7D1
:1028E00076FF0020FDF773FF9320FDF770FF0020B7
:1028F000FDF76DFFA220FDF76AFF0020FDF767FFDF
:10290000B320FDF764FF0020FDF761FFBE20FDF757
:102910005EFF0020FDF75BFFC420FDF758FF00209D
:10292000FDF755FFCD20FDF752FF0020FDF74FFFCB
:10293000D320FDF74CFF0020FDF749FFDC20FDF719
:1029400046FF0020FDF743FFF320FDF740FF002086
:10295000FDF73DFFE620FDF731FF1120FDF737FFC2
:102960000020FDF734FF3420FDF731FF0020FDF794
:102970002EFF5620FDF72BFF0020FDF728FF7620C5
:10298000FDF725FF0020FDF722FF7720FDF71FFF51
:102990000020FDF71CFF6620FDF719FF0020FDF762
:1029A00016FF8820FDF713FF0020FDF710FF992088
:1029B000FDF70DFF0020FDF70AFFBB20FDF707FF25
:1029C0000020FDF704FF9920FDF701FF0020FDF72F
:1029D000FEFE6620FDF7FBFE0020FDF7F8FE552009
:1029E000FDF7F5FE0020FDF7F2FE5520FDF7EFFEA6
:1029F0000020FDF7ECFE4520FDF7E9FE0020FDF785
:102A0000E6FE4320FDF7E3FE0020FDF7E0FE442054
:102A1000FDF7DDFE0020FDF7DAFEE720FDF7CEFE34
:102A20003220FDF7D4FE0020FDF7D1FE5520FDF742
:102A3000CEFE0020FDF7CBFE7620FDF7C8FE00207D
:102A4000FDF7C5FE6620FDF7C2FE0020FDF7BFFEC4
:102A50006720FDF7BCFE0020FDF7B9FE6720FDF7FB
:102A6000B6FE0020FDF7B3FE8720FDF7B0FE002084
:102A7000FDF7ADFE9920FDF7AAFE0020FDF7A7FEA9
:102A8000BB20FDF7A4FE0020FDF7A1FE9920FDF775
:102A90009EFE0020FDF79BFE7720FDF798FE0020AC
:102AA000FDF795FE4420FDF792FE0020FDF78FFE16
:102AB0005620FDF78CFE0020FDF789FE2320FDF750
:102AC00086FE0020FDF783FE3320FDF780FE002008
:102AD000FDF77DFE4520FDF77AFE0020FDF777FE2D
:102AE000E820FDF76BFE0020FDF771FE0020FDF7EA
:102AF0006EFE9920FDF76BFE0020FDF768FE872033
:102B0000FDF765FE0020FDF762FE8820FDF75FFE01
:102B10000020FDF75CFE7720FDF759FE0020FDF751
:102B200056FE6620FDF753FE0020FDF750FE88207C
:102B3000FDF74DFE0020FDF74AFEAA20FDF747FEF7
:102B40000020FDF744FEBB20FDF741FE0020FDF70D
:102B50003EFE9920FDF73BFE0020FDF738FE662083
:102B6000FDF735FE0020FDF732FE5520FDF72FFE64
:102B70000020FDF72CFE5520FDF729FE0020FDF773
:102B800026FE4420FDF723FE0020FDF720FE442012
:102B9000FDF71DFE0020FDF71AFE5520FDF717FE7C
:102BA0000020FDF714FEE920FDF708FEAA20FDF73E
:102BB0000EFE0020FDF70BFE0020FDF708FE0020B2
:102BC000FDF705FE0020FDF7F9FDAA20FDF7FFFD4A
:102BD000CF20FDF7F3FD0020FDF7F9FD0020FDF704
:102BE000F6FD0020FDF7F3FD0020FDF7F0FD0020CD
:102BF000FDF7EDFD0020FDF7EAFD0020FDF7E7FD04
:102C00000020FDF7E4FD0020FDF7E1FD0020FDF7C9
:102C1000DEFD0020FDF7DBFD0020FDF7D8FD0020E4
:102C2000FDF7D5FD0020FDF7D2FD0020FDF7CFFD1B
:102C30000020FDF7CCFD0020FDF7C9FDF020FDF7D9
:102C4000BDFD0020FDF7C3FD5020FDF7C0FD0020B5
:102C5000FDF7BDFD0020FDF7BAFD0020FDF7B7FD33
:102C6000F320FDF7ABFD0020FDF7B1FDF920FDF7E6
:102C7000A5FD0620FDF7ABFD1020FDF7A8FD2920DE
:102C8000FDF7A5FD0020FDF7A2FD3A20FDF796FD1A
:102C90005520FDF79CFD1120FDF790FD642003F009
:102CA00091F92920FDF78AFD3520FDF787FD0020E9
:102CB000FDF78DFD5120FDF781FDFF20FDF787FD1C
:102CC0005320FDF77BFD2C20FDF781FD5520FDF7FE
:102CD00075FD8220FDF77BFD2C20FDF76FFD02F0D6
:102CE000E9B8FE48808845F2105188427ED15521CE
:102CF0004FF47040FDF77DFDAA214FF20100FDF772
:102D000078FD52214FF20200FDF773FD08214FF2CA
:102D10000300FDF76EFD01214FF20400FDF769FD90
:102D20000D214FF43040FDF764FD0D214BF2010001
:102D3000FDF75FFD0D214BF20200FDF75AFD342136
:102D40004FF43640FDF755FD34214BF20160FDF79D
:102D500050FD34214BF20260FDF74BFD0D214FF485
:102D60003140FDF746FD0D214BF20110FDF741FD0D
:102D70000D214BF20210FDF73CFD34214FF437409A
:102D8000FDF737FD34214BF20170FDF732FD3421A0
:102D90004BF20270FDF72DFD00214FF43240FDF79C
:102DA00028FD00214BF20120FDF723FD00214BF20D
:102DB0000220FDF71EFD24214FF43840FDF719FDD8
:102DC00024214BF60100FDF714FD24214BF60200EF
:102DD000FDF70FFD01214FF43F40FDF70AFD0F21E4
:102DE0004FF43340FDF705FD0F2100E0FEE34BF209
:102DF0000130FDF7FEFC0F214BF20230FDF7F9FC2C
:102E000034214FF43940FDF7F4FC34214BF6011026
:102E1000FDF7EFFC34214BF60210FDF7EAFC082128
:102E20004FF43540FDF7E5FC08214BF20150FDF76A
:102E3000E0FC08214BF20250FDF7DBFC03214FF4CC
:102E40004240FDF7D6FC24214FF43A40FDF7D1FC77
:102E500024214BF60120FDF7CCFC24214BF6022067
:102E6000FDF7C7FC00214FF43C40FDF7C2FC782180
:102E70004BF60140FDF7BDFC00214BF60240FDF78B
:102E8000B8FC00214FF43D40FDF7B3FC78214BF630
:102E90000150FDF7AEFC00214BF60250FDF7A9FCF6
:102EA00000214FF43E40FDF7A4FC64214BF6016085
:102EB000FDF79FFC00214FF45140FDF79AFC3321B0
:102EC0004DF20110FDF795FC00214DF20210FDF7C7
:102ED00090FC34214DF20310FDF78BFC00214DF2E4
:102EE0000410FDF786FC3A214DF20510FDF781FC38
:102EF00000214DF20610FDF77CFC4A214DF207102F
:102F0000FDF777FC00214DF20810FDF772FC5C2103
:102F10004DF20910FDF76DFC00214DF20A10FDF78E
:102F200068FC81214DF20B10FDF763FC00214DF28E
:102F30000C10FDF75EFCA6214DF20D10FDF759FCBB
:102F400000214DF20E10FDF754FCE5214DF20F105B
:102F5000FDF74FFC01214DF21010FDF74AFC132143
:102F60004DF21110FDF745FC01214DF21210FDF755
:102F700040FC54214DF21310FDF73BFC01214DF2B2
:102F80001410FDF736FC82214DF21510FDF731FCCF
:102F900001214DF21610FDF72CFCCA214DF217103D
:102FA000FDF727FC02214DF21810FDF722FC00214D
:102FB0004DF21910FDF71DFC02214DF21A10FDF71C
:102FC00018FC01214DF21B10FDF713FC02214DF2FC
:102FD0001C10FDF70EFC34214DF21D10FDF709FC0D
:102FE00002214DF21E10FDF704FC67214DF21F1067
:102FF000FDF7FFFB02214DF22010FDF7FAFB8421C3
:103000004DF22110FDF7F5FB02214DF22210FDF7E4
:10301000F0FBA4214DF22310FDF7EBFB02214DF252
:103020002410FDF7E6FBB7214DF22510FDF7E1FB7B
:1030300002214DF22610FDF7DCFBCF214DF22710C7
:10304000FDF7D7FB02214DF22810FDF7D2FBDE2160
:103050004DF22910FDF7CDFB02214DF22A10FDF7AC
:10306000C8FBF2214DF22B10FDF7C3FB02214DF2FC
:103070002C10FDF7BEFBFE214DF22D10FDF7B9FB24
:1030800003214DF22E10FDF7B4FB10214DF22F104D
:10309000FDF7AFFB03214DF23010FDF7AAFB332102
:1030A0004DF23110FDF7A5FB03214DF23210FDF773
:1030B000A0FB6D214DF23310FDF79BFB00214FF477
:1030C0005240FDF796FB33214DF20120FDF791FBB5
:1030D00000214DF20220FDF78CFB01E0F8000020FA
:1030E00034214DF20320FDF784FB00214DF2042032
:1030F000FDF77FFB3A214DF20520FDF77AFB002119
:103100004DF20620FDF775FB4A214DF20720FDF731
:1031100070FB00214DF20820FDF76BFB5C214DF2A6
:103120000920FDF766FB00214DF20A20FDF761FB47
:1031300081214DF20B20FDF75CFB00214DF20C20AC
:10314000FDF757FBA6214DF20D20FDF752FB0021A4
:103150004DF20E20FDF74DFBE5214DF20F20FDF75E
:1031600048FB01214DF21020FDF743FB13214DF2E6
:103170001120FDF73EFB01214DF21220FDF739FB36
:1031800054214DF21320FDF734FB01214DF21420A0
:10319000FDF72FFB82214DF21520FDF72AFB0121BF
:1031A0004DF21620FDF725FBCA214DF21720FDF741
:1031B00020FB02214DF21820FDF71BFB00214DF2F0
:1031C0001920FDF716FB02214DF21A20FDF711FB25
:1031D00001214DF21B20FDF70CFB02214DF21C20BA
:1031E000FDF707FB34214DF21D20FDF702FB022104
:1031F0004DF21E20FDF7FDFA67214DF21F20FDF76D
:10320000F8FA02214DF22020FDF7F3FA84214DF265
:103210002120FDF7EEFA02214DF22220FDF7E9FA16
:10322000A4214DF22320FDF7E4FA02214DF22420DF
:10323000FDF7DFFAB7214DF22520FDF7DAFA02217A
:103240004DF22620FDF7D5FACF214DF22720FDF7CC
:10325000D0FA02214DF22820FDF7CBFADE214DF203
:103260002920FDF7C6FA02214DF22A20FDF7C1FA06
:10327000F2214DF22B20FDF7BCFA02214DF22C2059
:10328000FDF7B7FAFE214DF22D20FDF7B2FA03212A
:103290004DF22E20FDF7ADFA10214DF22F20FDF753
:1032A000A8FA03214DF23020FDF7A3FA33214DF2A5
:1032B0003120FDF79EFA03214DF23220FDF799FAF5
:1032C0006D214DF23320FDF794FA00214FF4534065
:1032D000FDF78FFA33214DF20130FDF78AFA002114
:1032E0004DF20230FDF785FA34214DF20330FDF73F
:1032F00080FA00214DF20430FDF77BFA3A214DF2BD
:103300000530FDF776FA00214DF20630FDF771FA2F
:103310004A214DF20730FDF76CFA00214DF20830DA
:10332000FDF767FA5C214DF20930FDF762FA0021E2
:103330004DF20A30FDF75DFA81214DF20B30FDF7B9
:1033400058FA00214DF20C30FDF753FAA6214DF248
:103350000D30FDF74EFA00214DF20E30FDF749FA1F
:10336000E5214DF20F30FDF744FA01214DF2103006
:10337000FDF73FFA13214DF21130FDF73AFA012122
:103380004DF21230FDF735FA54214DF21330FDF7AE
:1033900030FA01214DF21430FDF72BFA82214DF263
:1033A0001530FDF726FA01214DF21630FDF721FA0E
:1033B000CA214DF21730FDF71CFA02214DF21830E8
:1033C000FDF717FA00214DF21930FDF712FA02212C
:1033D0004DF21A30FDF70DFA01214DF21B30FDF7C9
:1033E00008FA02214DF21C30FDF703FA34214DF2A8
:1033F0001D30FDF7FEF902214DF21E30FDF7F9F9FF
:1034000067214DF21F30FDF7F4F902214DF2203013
:10341000FDF7EFF984214DF22130FDF7EAF90221A1
:103420004DF22230FDF7E5F9A4214DF22330FDF7EE
:10343000E0F902214DF22430FDF7DBF9B7214DF21E
:103440002530FDF7D6F902214DF22630FDF7D1F9EE
:10345000CF214DF22730FDF7CCF902214DF2283073
:10346000FDF7C7F9DE214DF22930FDF7C2F902213F
:103470004DF22A30FDF7BDF9F2214DF22B30FDF768
:10348000B8F902214DF22C30FDF7B3F9FE214DF2CF
:103490002D30FDF7AEF903214DF22E30FDF7A9F9DD
:1034A00010214DF22F30FDF7A4F903214DF23030F9
:1034B000FDF79FF933214DF23130FDF79AF90321E1
:1034C0004DF23230FDF795F96D214DF23330FDF7B5
:1034D00090F900214FF45440FDF78BF933214DF260
:1034E0000140FDF786F900214DF20240FDF781F918
:1034F00034214DF20340FDF77CF900214DF20440E8
:10350000FDF777F93A214DF20540FDF772F90021F8
:103510004DF20640FDF76DF94A214DF20740FDF7E7
:1035200068F900214DF20840FDF763F95C214DF286
:103530000940FDF75EF900214DF20A40FDF759F907
:1035400081214DF20B40FDF754F900214DF20C4062
:10355000FDF74FF9A6214DF20D40FDF74AF9002184
:103560004DF20E40FDF745F9E5214DF20F40FDF714
:1035700040F901214DF21040FDF73BF913214DF2C6
:103580001140FDF736F901214DF21240FDF731F9F6
:1035900054214DF21340FDF72CF901214DF2144056
:1035A000FDF727F982214DF21540FDF722F901219F
:1035B0004DF21640FDF71DF9CA214DF21740FDF7F7
:1035C00018F902214DF21840FDF713F900214DF2D0
:1035D0001940FDF70EF902214DF21A40FDF709F9E5
:1035E00001214DF21B40FDF704F900E004E3022144
:1035F0004DF21C40FDF7FDF834214DF21D40FDF762
:10360000F8F802214DF21E40FDF7F3F867214DF264
:103610001F40FDF7EEF802214DF22040FDF7E9F8DA
:1036200084214DF22140FDF7E4F802214DF22240C1
:10363000FDF7DFF8A4214DF22340FDF7DAF802216F
:103640004DF22440FDF7D5F8B7214DF22540FDF7A6
:10365000D0F802214DF22640FDF7CBF8CF214DF2F4
:103660002740FDF7C6F802214DF22840FDF7C1F8CA
:10367000DE214DF22940FDF7BCF802214DF22A402F
:10368000FDF7B7F8F2214DF22B40FDF7B2F8022119
:103690004DF22C40FDF7ADF8FE214DF22D40FDF727
:1036A000A8F803214DF22E40FDF7A3F810214DF2AA
:1036B0002F40FDF79EF803214DF23040FDF799F8B9
:1036C00033214DF23140FDF794F803214DF23240A1
:1036D000FDF78FF86D214DF23340FDF78AF8002198
:1036E0004FF45540FDF785F833214DF20150FDF7B9
:1036F00080F800214DF20250FDF77BF834214DF2A5
:103700000350FDF776F800214DF20450FDF771F8F3
:103710003A214DF20550FDF76CF800214DF20650AC
:10372000FDF767F84A214DF20750FDF762F80021D6
:103730004DF20850FDF75DF85C214DF20950FDF7A0
:1037400058F800214DF20A50FDF753F881214DF24F
:103750000B50FDF74EF800214DF20C50FDF749F8E3
:10376000A6214DF20D50FDF744F800214DF20E5008
:10377000FDF73FF8E5214DF20F50FDF73AF8012132
:103780004DF21050FDF735F813214DF21150FDF7B1
:1037900030F801214DF21250FDF72BF854214DF273
:1037A0001350FDF726F801214DF21450FDF721F8D2
:1037B00082214DF21550FDF71CF801214DF21650F3
:1037C000FDF717F8CA214DF21750FDF712F8022144
:1037D0004DF21850FDF70DF800214DF21950FDF78C
:1037E00008F802214DF21A50FDF703F801214DF2BD
:1037F0001B50FCF7FEFF02214DF21C50FCF7F9FFB5
:1038000034214DF21D50FCF7F4FF02214DF21E5001
:10381000FCF7EFFF67214DF21F50FCF7EAFF022192
:103820004DF22050FCF7E5FF84214DF22150FCF7CA
:10383000E0FF02214DF22250FCF7DBFFA4214DF204
:103840002350FCF7D6FF02214DF22450FCF7D1FFA4
:10385000B7214DF22550FCF7CCFF02214DF2265046
:10386000FCF7C7FFCF214DF22750FCF7C2FF022122
:103870004DF22850FCF7BDFFDE214DF22950FCF738
:10388000B8FF02214DF22A50FCF7B3FFF2214DF2AE
:103890002B50FCF7AEFF02214DF22C50FCF7A9FF94
:1038A000FE214DF22D50FCF7A4FF03214DF22E50C6
:1038B000FCF79FFF10214DF22F50FCF79AFF0321D8
:1038C0004DF23050FCF795FF33214DF23150FCF7AB
:1038D00090FF03214DF23250FCF78BFF6D214DF22A
:1038E0003350FCF786FF00214FF45640FCF781FF70
:1038F00033214DF20160FCF77CFF00214DF20260A4
:10390000FCF777FF34214DF20360FCF772FF0021D2
:103910004DF20460FCF76DFF3A214DF20560FCF7B3
:1039200068FF00214DF20660FCF763FF4A214DF26B
:103930000760FCF75EFF00214DF20860FCF759FFBD
:103940005C214DF20960FCF754FF00214DF20A6042
:10395000FCF74FFF81214DF20B60FCF74AFF00217D
:103960004DF20C60FCF745FFA6214DF20D60FCF70F
:1039700040FF00214DF20E60FCF73BFFE5214DF2C8
:103980000F60FCF736FF01214DF21060FCF731FFAC
:1039900013214DF21160FCF72CFF01214DF2126052
:1039A000FCF727FF54214DF21360FCF722FF0121A1
:1039B0004DF21460FCF71DFF82214DF21560FCF7FB
:1039C00018FF01214DF21660FCF713FFCA214DF2DA
:1039D0001760FCF70EFF02214DF21860FCF709FF9B
:1039E00000214DF21960FCF704FF02214DF21A602C
:1039F000FCF7FFFE01214DF21B60FCF7FAFE0221ED
:103A00004DF21C60FCF7F5FE34214DF21D60FCF711
:103A1000F0FE02214DF21E60FCF7EBFE67214DF235
:103A20001F60FCF7E6FE02214DF22060FCF7E1FE8C
:103A300084214DF22160FCF7DCFE02214DF2226070
:103A4000FCF7D7FEA4214DF22360FCF7D2FE022141
:103A50004DF22460FCF7CDFEB7214DF22560FCF756
:103A6000C8FE02214DF22660FCF7C3FECF214DF2C5
:103A70002760FCF7BEFE02214DF22860FCF7B9FE7C
:103A8000DE214DF22960FCF7B4FE02214DF22A60DE
:103A9000FCF7AFFEF2214DF22B60FCF7AAFE0221EB
:103AA0004DF22C60FCF7A5FEFE214DF22D60FCF7D7
:103AB000A0FE03214DF22E60FCF79BFE10214DF27B
:103AC0002F60FCF796FE03214DF23060FCF791FE6B
:103AD00033214DF23160FCF78CFE03214DF2326050
:103AE000FCF787FE6D214DF23360FCF782FE552115
:103AF0004FF47040FCF77DFEAA214FF20100FCF765
:103B000078FE52214FF20200FCF773FE08214FF2BB
:103B10000300FCF76EFE00214FF20400FCF769FE83
:103B2000CC214FF43140FCF764FE00214BF2011030
:103B3000FCF75FFE05214FF43640FCF75AFE70217A
:103B40004FF43740FCF755FE70214BF20170FCF743
:103B500050FE01214FF43840FCF74BFE03214BF699
:103B60000100FCF746FE03214BF60200FCF741FE84
:103B700003214BF60300FCF73CFE02214FF43C40CE
:103B8000FCF737FE00214BF60140FCF732FE002126
:103B90004BF60240FCF72DFED0214FF44940FCF7D4
:103BA00028FE02214CF60110FCF723FE50214CF6B2
:103BB0000210FCF71EFE50214CF60310FCF719FE14
:103BC00050214CF60410FCF714FE00214FF4545021
:103BD000FCF70FFE55214FF46850FCF70AFE4FF436
:103BE0008850FCF7EBFD782002F0A4F94FF4245044
:103BF000FCF7E4FD01F05EB9FE48808849F225310A
:103C000088427DD147F6F001E520FCF7F2FD4FF444
:103C100080710120FCF7EDFD4FF4E0610220FCF71C
:103C2000E8FD41F230010320FCF7E3FD0021042010
:103C3000FCF7DFFD40F202210820FCF7DAFD00214D
:103C40000920FCF7D6FD00210A20FCF7D2FD002157
:103C50000C20FCF7CEFD00210D20FCF7CAFD002151
:103C60000F20FCF7C6FD00211020FCF7C2FD072144
:103C70001120FCF7BEFD00211220FCF7BAFD002147
:103C80001320FCF7B6FD00210720FCF7B2FD41F23E
:103C900090611020FCF7ADFD40F227211120FCF7C8
:103CA000A8FD9D211220FCF7A4FD4FF4C85113205C
:103CB000FCF79FFD25212920FCF79BFD0D212B20E2
:103CC000FCF797FD07213020FCF793FD40F203310C
:103CD0003120FCF78EFD03213220FCF78AFD40F2F3
:103CE00006213520FCF785FD08213620FCF781FDF3
:103CF00040F206413720FCF77CFD4FF4417100E0B3
:103D000058E03820FCF775FD07213920FCF771FDDC
:103D100040F202613C20FCF76CFD08213D20FCF7DD
:103D200068FD00215020FCF764FDEF215120FCF7D5
:103D300060FD00215220FCF75CFD40F23F11532052
:103D4000FCF757FD4FF427416020FCF752FD01219D
:103D50006120FCF74EFD00216A20FCF74AFD00219E
:103D60008020FCF746FD00218120FCF742FD002168
:103D70008220FCF73EFD00218320FCF73AFD002164
:103D80008420FCF736FD00218520FCF732FD102150
:103D90009020FCF72EFD4FF4C0619220FCF729FD26
:103DA00040F233110720FCF724FD22210020FCF70C
:103DB00020FD1FE78F48808849F2283188427DD155
:103DC00041F28F01EC20FCF714FD41F23421EF2089
:103DD000FCF70FFD4FF480710120FCF70AFD4FF452
:103DE000E0610220FCF705FD41F230010320FCF701
:103DF00000FD00210420FCF7FCFC40F20221082019
:103E0000FCF7F7FC00210920FCF7F3FC00210A2055
:103E1000FCF7EFFC01210C20FCF7EBFC00210D204E
:103E2000FCF7E7FC00210F20FCF7E3FC0021102049
:103E3000FCF7DFFC07211120FCF7DBFC002112203E
:103E4000FCF7D7FC00211320FCF7D3FC012107204D
:103E5000FCF7CFFC322002F0B5F841F2904110207F
:103E6000FCF7C7FC40F227211120FCF7C2FC3220EE
:103E700002F0A8F88A211220FCF7BBFC322002F0E5
:103E8000A1F84FF4D0511320FCF7B3FC06212920F0
:103E9000FCF7AFFC0D212B20FCF7ABFC322002F02D
:103EA00091F800212020FCF7A4FC00212120FCF740
:103EB000A0FC322002F086F8002100E075E03020FE
:103EC000FCF797FC40F204613120FCF792FC40F2D1
:103ED00005313220FCF78DFC00213520FCF789FCF0
:103EE00040F609413620FCF784FC4FF4017137207D
:103EF000FCF77FFC40F201313820FCF77AFC40F2FD
:103F000007713920FCF775FC00213C20FCF771FC9F
:103F100040F60A213D20FCF76CFC322002F052F8FA
:103F200000215020FCF765FCEF215120FCF761FCDB
:103F300000215220FCF75DFC40F23F115320FCF7BA
:103F400058FC4FF427416020FCF753FC012161200D
:103F5000FCF74FFC00216A20FCF74BFC002180207D
:103F6000FCF747FC00218120FCF743FC0021822064
:103F7000FCF73FFC00218320FCF73BFC0021842060
:103F8000FCF737FC00218520FCF733FC1021902042
:103F9000FCF72FFC4FF4C0619220FCF72AFC40F2A2
:103FA00033110720FCF725FC24E61248808849F2EB
:103FB000203188427ED100210846FCF71AFC4FF4DC
:103FC00080710120FCF715FC4FF4E0610220FCF742
:103FD00010FC41F230010320FCF70BFC002104200F
:103FE000FCF707FC40F202210820FCF702FC00214C
:103FF000092001E0F8000020FCF7FBFB00210A206B
:10400000FCF7F7FB01210C20FCF7F3FB00210D204E
:10401000FCF7EFFB00210F20FCF7EBFB322001F057
:10402000D1FF40F201110720FCF7E3FB322001F041
:10403000C9FF4FF486511020FCF7DBFB072111204C
:10404000FCF7D7FB4FF488711220FCF7D2FB4FF43A
:1040500030611320FCF7CDFB00212920FCF7C9FBC0
:1040600044F210012B20FCF7C4FB00215020FCF788
:10407000C0FBEF215120FCF7BCFB00215220FCF7D4
:10408000B8FB40F23F115320FCF7B3FB4FF41C5137
:104090006020FCF7AEFB01216120FCF7AAFB0021A8
:1040A0006A20FCF7A6FB00218020FCF7A2FB002180
:1040B000812000E030E0FCF79CFB00218220FCF72F
:1040C00098FB00218320FCF794FB00218420FCF75F
:1040D00090FB00218520FCF78CFB10219020FCF741
:1040E00088FB00219220FCF784FB01219320FCF740
:1040F00080FB4FF488719520FCF77BFB0021972013
:10410000FCF777FB00219820FCF773FB40F273115A
:104110000720FCF76EFB6DE5FE48808849F23131DF
:1041200088427DD141F21401E720FCF762FB4FF495
:1041300080710120FCF75DFB4FF400710220FCF759
:1041400058FB41F238010320FCF753FB40F20221F7
:104150000820FCF74EFB00210920FCF74AFB002158
:104160000A20FCF746FB00210C20FCF742FB002153
:104170000D20FCF73EFB00210F20FCF73AFB00214D
:104180001020FCF736FB07211120FCF732FB002141
:104190001220FCF72EFB00211320FCF72AFBC8207D
:1041A00001F010FF41F290611020FCF722FB40F279
:1041B00027211120FCF71DFB322001F003FF0C2109
:1041C0001220FCF716FB322001F0FCFE4FF40061D8
:1041D0001320FCF70EFB11212920FCF70AFB0B2111
:1041E0002B20FCF706FB322001F0ECFE0021202002
:1041F000FCF7FFFA40F23F112120FCF7FAFA002108
:104200003020FCF7F6FA4FF483713120FCF7F1FA15
:1042100000213220FCF7EDFA4FF40171352000E067
:1042200064E0FCF7E6FA41F20A613620FCF7E1FAB5
:1042300040F207713720FCF7DCFA4FF48371382025
:10424000FCF7D7FA40F207713920FCF7D2FA40F2B6
:1042500002413C20FCF7CDFA40F60F413D20FCF72F
:10426000C8FA00215020FCF7C4FAEF215120FCF7D6
:10427000C0FA00215220FCF7BCFA40F23F11532053
:10428000FCF7B7FA4FF41C516020FCF7B2FA012199
:104290006120FCF7AEFA00216A20FCF7AAFA00219F
:1042A0008020FCF7A6FA00218120FCF7A2FA002169
:1042B0008220FCF79EFA00218320FCF79AFA002165
:1042C0008420FCF796FA00218520FCF792FA102151
:1042D0009020FCF78EFA4FF4C0619220FCF789FA27
:1042E00040F233110720FCF784FA83E48948808880
:1042F00045F2084188427DD14FF480710120FCF7DE
:1043000078FA4FF4E0610220FCF773FA41F23001D1
:104310000320FCF76EFA00210420FCF76AFA40F251
:1043200007210820FCF765FA00210920FCF761FA53
:1043300000210A20FCF75DFA00210C20FCF759FA55
:1043400000210D20FCF755FA00210F20FCF751FA4F
:10435000142001F037FE41F2B0611020FCF749FA59
:1043600001211120FCF745FA01211720FCF741FA41
:104370004FF49C711220FCF73CFA4FF400611320BB
:10438000FCF737FA09212920FCF733FA09212A2002
:10439000FCF72FFA0021A420FCF72BFA0021502073
:1043A000FCF727FAEF215120FCF723FA00215220D5
:1043B000FCF71FFA40F23F115320FCF71AFA4FF4B2
:1043C0001C516020FCF715FA01216120FCF711FA5D
:1043D00000216A20FCF70DFA00218020FCF709FA81
:1043E00000218120FCF705FA00218220FCF701FA68
:1043F000002100E024E08320FCF7FBF90021842069
:10440000FCF7F7F900218520FCF7F3F91321902040
:10441000FCF7EFF900219220FCF7EBF90321932040
:10442000FCF7E7F94FF488719520FCF7E2F940F2C8
:1044300073110720FCF7DDF9322001F0C3FDB8E469
:104440003448808841F2055188427DD100210720FF
:10445000FCF7CFF9322001F0B5FD4FF48E71122038
:10446000FCF7C7F90121A420FCF7C3F90F210820AC
:10447000FCF7BFF908210A20FCF7BBF908210D2041
:10448000FCF7B7F940F207713020FCF7B2F90721C9
:104490003120FCF7AEF940F203613220FCF7A9F9B4
:1044A0004FF4E0613320FCF7A4F940F202213420FC
:1044B000FCF79FF902213520FCF79BF941F60F71BB
:1044C0003620FCF796F940F207713720FCF791F996
:1044D00000213820FCF78DF900213920FCF789F9FB
:1044E00040F207713A20FCF784F900213B20FCF7E9
:1044F00080F907213C20FCF77CF900213D20FCF7E6
:1045000078F9322001F05EFD01210720FCF771F9F6
:10451000012101E0F80000201720FCF76AF93220A1
:1045200001F050FD4FF4BD511020FCF762F940F24C
:1045300017211120FCF75DF94FF48F711220FCF761
:1045400058F94FF4706100E098E01320FCF751F93E
:1045500000212A20FCF74DF90A212920FCF749F90E
:104560004FF49F711220FCF744F900215020FCF712
:1045700040F9EF215120FCF73CF900215220FCF7D3
:1045800038F940F23F115320FCF733F94FF41C5136
:104590006020FCF72EF901216120FCF72AF90021A7
:1045A0006A20FCF726F900218020FCF722F900217F
:1045B0008120FCF71EF900218220FCF71AF9002166
:1045C0008320FCF716F900218420FCF712F9002162
:1045D0008520FCF70EF913219020FCF70AF94FF41F
:1045E00040719220FCF705F905219320FCF701F9B1
:1045F00000219520FCF7FDF800219720FCF7F9F841
:1046000000219820FCF7F5F84FF480710120FCF7A9
:10461000F0F84FF4E0610220FCF7EBF841F23801CA
:104620000320FCF7E6F800210420FCF7E2F8002163
:104630000C20FCF7DEF800210F20FCF7DAF800214F
:104640002020FCF7D6F800212120FCF7D2F8212108
:104650000720FCF7CEF8142001F0B4FC61210720FC
:10466000FCF7C7F8142001F0ADFC40F273110720ED
:10467000FCF7BFF8142001F0A5FC95E4FE48808803
:104680004BF2055188427CD100210846FCF7B1F875
:1046900000210846FCF7ADF800210846FCF7A9F810
:1046A00000210846FCF7A5F80121A420FCF7A1F899
:1046B000142001F087FC4FF41C516020FCF799F89E
:1046C00040F202210820FCF794F84FF405713020E5
:1046D000FCF78FF843F215713120FCF78AF840F2AD
:1046E00004613220FCF785F840F616613320FCF7B0
:1046F00080F842F211213420FCF77BF84FF4A851E6
:104700003520FCF776F848F207513620FCF771F8AF
:1047100041F207413720FCF76CF841F203413820A1
:10472000FCF767F820213920FCF763F81A21902064
:10473000FCF75FF800211020FCF75BF8072111203F
:10474000FCF757F800211220FCF753F80021132042
:10475000FCF74FF8142001F035FC4FF4E66110200F
:10476000FCF747F840F237111120FCF742F814200B
:1047700001F028FC4FF4DC711220FCF73AF8142009
:1047800000E085E001F01EFC4FF470611320FCF79F
:1047900030F880212A20FCF72CF848212920FCF74A
:1047A00028F8142001F00EFC4FF480710120FCF772
:1047B00020F84FF4E0610220FCF71BF841F23801C9
:1047C0000320FCF716F840F202210820FCF711F84C
:1047D00000210A20FCF70DF800210C20FCF709F855
:1047E00000210D20FCF705F830210E20FCF701F820
:1047F00000215020FBF7FDFFEF215120FBF7F9FFCF
:1048000000215220FBF7F5FF40F23F115320FBF748
:10481000F0FF4FF41C516020FBF7EBFF01216120FA
:10482000FBF7E7FF00216A20FBF7E3FF112190204F
:10483000FBF7DFFF4FF4C0619220FBF7DAFF40F295
:1048400002419320FBF7D5FF02219420FBF7D1FF13
:10485000142001F0B7FB01210720FBF7CAFF142049
:1048600001F0B0FB61210720FBF7C3FF40F2731199
:104870000720FBF7BEFF00212020FBF7BAFF002135
:104880002120FBF7B6FF22210020FBF7B2FF11E346
:10489000794880884CF2055188427CD10021084635
:1048A000FBF7A7FF00210846FBF7A3FF142001F048
:1048B00089FB00210846FBF79CFF00210846FBF717
:1048C00098FF00210846FBF794FF00210846FBF7FC
:1048D00090FF0121A420FBF78CFF142001F072FB54
:1048E0004FF41C516020FBF784FF40F606010820BE
:1048F000FBF77FFF40F203713020FBF77AFF0121C5
:104900003120FBF776FF04213220FBF772FF4FF4D2
:1049100081713320FBF76DFF4FF440713420FBF7BA
:1049200068FF40F203113520FBF763FF1F2136209B
:10493000FBF75FFF40F203713720FBF75AFF0121BD
:104940003820FBF756FF04213920FBF752FF1521D1
:104950009020FBF74EFF4FF482611020FBF749FFD8
:1049600040F247211120FBF744FF4FF4DE71122083
:10497000FBF73FFF4FF460611320FBF73AFF78200D
:1049800001F020FB4FF480710120FBF732FF4FF460
:104990000071022000E052E0FBF72BFF41F23001F2
:1049A0000320FBF726FF08210A20FBF722FF002146
:1049B0000C20FBF71EFF20210E20FBF71AFF002121
:1049C0000F20FBF716FF00212020FBF712FF00212C
:1049D0002120FBF70EFF3D212A20FBF70AFF1420C0
:1049E00001F0F0FA2D212920FBF703FF00215020D0
:1049F000FBF7FFFE4DF2EF015120FBF7FAFE00211D
:104A00005220FBF7F6FE40F23F115320FBF7F1FE78
:104A100000216120FBF7EDFE00216A20FBF7E9FE93
:104A20004FF440719220FBF7E4FE05219320FBF741
:104A3000E0FE4FF480710720FBF7DBFE3AE20E4800
:104A4000808844F2315188427ED101210020FBF759
:104A5000D0FE0A2001F0B6FA41F228611020FBF7DF
:104A6000C8FE0E211220FBF7C4FE40F639211320A8
:104A7000FBF7BFFE0A2001E0F800002001F0A2FAD7
:104A800040211120FBF7B5FE50211520FBF7B1FEA8
:104A90000A2001F097FA1E211220FBF7AAFE0A2035
:104AA00001F090FA4FF4B1511020FBF7A2FE42F64C
:104AB00039211320FBF79DFE0A2001F083FA4FF401
:104AC00080710120FBF795FE4FF440710220FBF747
:104AD00090FE41F238010320FBF78BFE40F20221E9
:104AE0000820FBF786FE08210A20FBF782FE002142
:104AF0003020FBF77EFE40F202413120FBF779FEC9
:104B00004FF483713220FBF774FE40F203513320DF
:104B1000FBF76FFE4FF482713420FBF76AFE40F220
:104B200001313520FBF765FE40F207713620FBF7B7
:104B300060FE40F205313720FBF75BFE4FF4027157
:104B40003820FBF756FE00E03EE040F60B713920BE
:104B5000FBF74FFE02214120FBF74BFE4FF41C51A7
:104B60006020FBF746FE01216120FBF742FE4FF477
:104B700004719020FBF73DFE4FF485719220FBF706
:104B800038FE04219320FBF734FE4FF48071A020FF
:104B9000FBF72FFE01210720FBF72BFE2121072029
:104BA000FBF727FE23210720FBF723FE33210720F5
:104BB000FBF71FFE40F233110720FBF71AFE00211E
:104BC000A020FBF716FE75E1FA48808844F23551C3
:104BD00088427CD130211520FBF70BFE10219A2052
:104BE000FBF707FE20211120FBF703FE43F22841CB
:104BF0001020FBF7FEFD02211220FBF7FAFD41F227
:104C000038011320FBF7F5FD282001F0DBF9122114
:104C10000846FBF7EEFD282001F0D4F943F22041CD
:104C20001020FBF7E6FD43F238011320FBF7E1FD0E
:104C3000462001F0C7F900213020FBF7DAFD40F2F1
:104C400002413120FBF7D5FD40F207313220FBF75E
:104C5000D0FD4FF441713320FBF7CBFD042134200C
:104C6000FBF7C7FD40F201413520FBF7C2FD40F2E2
:104C700007713620FBF7BDFD40F205313720FBF709
:104C8000B8FD4FF4C2613820FBF7B3FD4FF4C261A9
:104C90003920FBF7AEFD4FF480710120FBF7A9FD31
:104CA0004FF440710220FBF7A4FD41F230010320D4
:104CB000FBF79FFD40F608010820FBF79AFD08214D
:104CC0000A20FBF796FD4FF41C51602000E033E012
:104CD000FBF78FFD01216120FBF78BFD4FF49F71E6
:104CE0009020FBF786FD4FF480719220FBF781FD49
:104CF0004FF480719320FBF77CFD4FF44051A020CE
:104D0000FBF777FD1021A320FBF773FD012107209E
:104D1000FBF76FFD21210720FBF76BFD2321072007
:104D2000FBF767FD33210720FBF763FD40F23311EA
:104D30000720FBF75EFDBDE09E48808841F66311C9
:104D40008842F8D1E220FBF739FD1D20FBF73FFD3B
:104D50000220FBF73CFD0420FBF739FD642001F045
:104D6000E9F8E020FBF72AFD0120FBF730FD0A20DF
:104D700001F028F9E020FBF721FD0320FBF727FDD8
:104D80000C2001F01FF90120FBF718FD0A2001F0AB
:104D900019F9E620FBF712FD2F20FBF718FDFF2085
:104DA000FBF715FDFF20FBF712FDB020FBF706FD1A
:104DB0002020FBF70CFD0020FBF709FD0320FBF78B
:104DC00006FD40F21F30FBF702FD0120FBF7FFFC60
:104DD00040F2DF10FBF7FBFC0020FBF7F8FCB420EF
:104DE000FBF7ECFC0420FBF7F2FC40F21F40FBF762
:104DF000EEFC0020FBF7EBFC2E20FBF7E8FC00208C
:104E0000FBF7E5FC0020FBF7E2FC0020FBF7DFFCF2
:104E10000020FBF7DCFCB620FBF7D0FC0220FBF700
:104E2000D6FC4FF40370FBF7D2FC0020FBF7CFFC5D
:104E30001720FBF7CCFC1520FBF7C9FC0020FBF783
:104E4000C6FC0020FBF7C3FCF020FBF7B7FC0320F7
:104E5000FBF7BDFC2920FBF7B1FCD020FBF7AEFC33
:104E60000020FBF7B4FCBE20FBF7A8FC0520FBF7F5
:104E7000AEFCFE20FBF7ABFC0120FBF7A8FC0020FA
:104E8000FBF7A5FC0020FBF7A2FC0020FBF79FFC32
:104E9000B820FBF793FC0320FBF799FC0120FBF7FC
:104EA00096FCBA20FBF78AFC0120FBF790FC6420FB
:104EB000FCF7F8F80120404908604FF6FF70FCF756
:104EC0000CFB21B000BD2DE9FC4F05460E461746F0
:104ED0009846DDF82C90002001903648808846F6F0
:104EE0000401884229D133488079012825D1AB4675
:104EF000354630480088C01B401E86B247462D48C4
:104F00000088A0EB0B00401E1FFA80F80020294902
:104F100088712A2048812B20888143463A463146B1
:104F20002846CDF80090FFF7CEFF01202149887177
:104F30002B2048812A2088811DE0781B401C80B2EC
:104F40000190344615E021462846FBF781FCFBF72B
:104F500062FC4FF0000A07E04FF0D840A0F88090C4
:104F60000AF101001FFA80FA01988245F4DB601C07
:104F700084B24445E7DDBDE8FC8F2DE9F84F0746D4
:104F80000D4690469946DDF828B0A8EB0700401C76
:104F90001FFA80FAA9EB0500401C80B200900024A3
:104FA00018E0281981B23846FBF752FCFBF733FCB6
:104FB00000260BE0F8000020BC82404204FB0A609F
:104FC0003BF81000FB490880701C86B25645F5DBA3
:104FD000601C84B200988442E3DBBDE8F88F2DE9C1
:104FE000FF4F84B081468A460020039002900698C5
:104FF000A0EB09050798A0EB0A06CDF80490CDF8C0
:1050000000A0002D01DD012705E00DB9002702E019
:105010004FF0FF376D42002E02DD4FF0010806E031
:1050200016B94FF0000802E04FF0FF387642B54263
:1050300001DD2C4600E034464FF0000B21E0009AE1
:1050400091B2019A90B2FBF75DFF03982844039058
:105050000298304402900398A04205DD0398001B9B
:1050600003900198384401900298A04205DD02980F
:10507000001B02900098404400900BF101001FFAC1
:1050800080FB601C8345DADD08B0BDE8F08FF0B529
:1050900004460D4616461F462B46324629462046F4
:1050A000FFF79DFF3B46224629462046FFF797FF24
:1050B0003B46324639462046FFF791FF3B46324693
:1050C00029463046FFF78BFFF0BD2DE9F043064639
:1050D0000F469046002445460320A0EB48093CE0DB
:1050E0007A1B91B2321990B2FBF70CFF3A1B91B2C6
:1050F000721990B2FBF706FF3A1991B2721990B289
:10510000FBF700FF7A1991B2321990B2FBF7FAFE61
:105110007A1991B2321B90B2FBF7F4FE3A1991B2B0
:10512000721B90B2FBF7EEFE7A1B91B2321B90B26B
:10513000FBF7E8FE3A1B91B2721B90B2FBF7E2FE5E
:10514000641CB9F1000F03DAA000801D814404E063
:10515000601B80000A3081446D1EAC42C0DDBDE89A
:10516000F0832DE9F84F80460F4616461C46BB4695
:105170002046E31704EB5373DB1021464FEAE47C2F
:1051800004EB5C7C4FEAEC0CA4EBCC0CBCF1000F04
:1051900002D04FF0010C01E04FF0000C63442246B6
:1051A00004EBD27C4FEA6C0C03FB0CF3DBB20093F4
:1051B000A6F12000C6B200255EE00C2C07D106EB5C
:1051C00046007D4901EB800010F805901BE0102C93
:1051D00005D17A4800EB061010F8059013E0182C62
:1051E00007D106EBC600764901EB800010F8059068
:1051F00009E0202C05D1734800EB861010F80590CB
:1052000001E0BDE8F88F4FF0000A2FE009F08000C0
:1052100030B16D48028839464046FBF781FE07E011
:105220000A9828B96948028839464046FBF778FE53
:105230004FEA49604FEA1069781C87B26448408899
:10524000B84200DCDDE7A7EB0B00A0420AD15F46C5
:1052500008F101001FFA80F85D480088404500DC35
:10526000CFE706E00AF1010000F0FF0ABAF1080FEB
:10527000CCDB00BF681CC5B2009885429DDB00BF37
:10528000BFE710B50246012000E050430B1EA1F11C
:105290000104E1B2F9D110BD2DE9FF4F81B00746FD
:1052A00091461E460E9D4FF0000A002439E0301B47
:1052B000401EC1B20A20FFF7E4FFB9FBF0F00A215B
:1052C000B0FBF1F201FB1208BAF1000F16D1701E0B
:1052D000A04213DDB8F1000F0ED10020AB4605EB64
:1052E000DB71491001FB0471009088B22B4620222B
:1052F0000299FFF736FF12E04FF0010A0020AB469B
:1053000005EBDB71491001FB0471009088B208F1D4
:105310003001CAB22B460299FFF723FF00BF601C81
:10532000C4B2B442C3DB05B0BDE8F08F2DE9FF4F36
:1053300082B0064692461F46DDE90F4800200190E4
:1053400000255EE0781B401EC1B20A20FFF799FFDE
:10535000BAFBF0F00A21B0FBF1F201FB120901984F
:10536000C0BB781EA84238DDB9F1000F33D108F078
:10537000800078B108F00100A34604EBDB7149100E
:1053800001FB0561009088B2234630220399FFF7A4
:10539000E8FE0EE008F00100A34604EBDB714910C3
:1053A00001FB0561009088B2234620220399FFF794
:1053B000D8FE24E08000006CE0860008548B0008D2
:1053C00044910008A09E0008200000202200002038
:1053D000F800002001E00120019008F00100A34640
:1053E00004EBDB71491001FB0561009088B209F103
:1053F0003001CAB223460399FFF7B3FE00BF681C11
:10540000C5B2BD429EDB06B0BDE8F08F2DE9F8477E
:1054100004460D4690469946DDE9096704F0FF0A07
:1054200008EB04001FFA80F809EB05001FFA80F969
:1054300016E0444502DB5446A81985B24D4500DB11
:1054400014E0002000903A78334629462046FFF7C2
:1054500088FE304606EBD07104EB61018CB27F1CF4
:1054600038787E2802DC38782028E2DA00BFBDE8F0
:10547000F8872DE9F84F04460D4690469946DDE938
:105480000B7A0A9E04F0FF0B08EB04001FFA80F869
:1054900009EB05001FFA80F916E0444502DB5C4683
:1054A000A81985B24D4500DB14E0CDF800A03A788C
:1054B000334629462046FFF754FE304606EBD071AE
:1054C00004EB61018CB27F1C38787E2802DC3878CE
:1054D0002028E2DA00BFBDE8F88F2DE9FF5F2DED4F
:1054E000020B2DED0E8BA4B0B0EE408AF0EE608A78
:1054F000429D0026B146002023909FEDFE0B53EC09
:10550000102B51EC180B02F079FE2ED2012651EC33
:10551000180B02F0E5FC03F0A7F8074688460A20BE
:105520003699FFF7AEFE029002F00EFE41EC1A0B28
:105530003846414602F01CFE9FEDF00B53EC102B59
:1055400002F098FE41EC1C0B51EC180B02F0C8FC69
:1055500053EC1C2B02F098FF53EC1A2B02F08AFE3E
:1055600003F082F882468B4624E051EC180B03F0DE
:105570007BF8074688460A203699FFF782FE02909C
:1055800002F0E2FD41EC1A0B3846414602F0F0FD14
:105590009FEDDA0B53EC102B02F06CFE53EC182B42
:1055A00002F066FF53EC1A2B02F064FE03F05CF885
:1055B00082468B4600BF0A2200233846414602F04D
:1055C000EEFA4846411C01F0FF0913A90A540A22C9
:1055D00000233846414602F0E2FA07468846002199
:1055E00087EA010088EA01010843E4D1239015E02D
:1055F0000A2200235046594602F0D1FAD1B203AA3A
:10560000239811540A2200235046594602F0C7FA43
:1056100082468B462398401CC0B22390369923982B
:105620008842E5DB3EB100202B462D220090DDE9CB
:105630003401FFF796FD34465CE009EB0600A0421A
:1056400016DD0020A9F10101A31BC91A13AB0090BC
:10565000595C3031CAB205EBD5714B1002953499C3
:1056600003FB041188B22B463599FFF77AFD3FE022
:1056700009EB0600A0420FD1002005EBD5714A10BE
:1056800002950090349902FB041188B22B462E2219
:105690003599FFF766FD2BE023984844401C3044C1
:1056A000A04216DD0020009023994944A31BC91A8B
:1056B00003AB595C3031CAB205EBD5714B10029582
:1056C000349903FB041188B22B463599FFF749FD45
:1056D0000EE0002005EBD5714A1002950090349938
:1056E00002FB041188B22B4620223599FFF739FDC1
:1056F000601CC4B2379884429FDB24B0BDEC0E8B93
:1057000006B0BDE8F09F2DE9FF5F2DED020B2DEDFA
:105710000E8BA4B0B0EE408AF0EE608A429D002667
:10572000B146002023909FED730B53EC102B51ECEE
:10573000180B02F063FD2ED2012651EC180B02F07B
:10574000CFFB02F091FF074688460A203699FFF703
:1057500098FD029002F0F8FC41EC1A0B38464146E5
:1057600002F006FD9FED650B53EC102B02F082FD5D
:1057700041EC1C0B51EC180B02F0B2FB53EC1C2B50
:1057800002F082FE53EC1A2B02F074FD02F06CFF63
:1057900082468B4624E051EC180B02F065FF074669
:1057A00088460A203699FFF76CFD029002F0CCFC87
:1057B00041EC1A0B3846414602F0DAFC9FED4F0BE4
:1057C00053EC102B02F056FD53EC182B02F050FE58
:1057D00053EC1A2B02F04EFD02F046FF82468B4638
:1057E00000BF0A2200233846414602F0D8F9484655
:1057F000411C01F0FF0913A90A540A22002338466C
:10580000414602F0CCF907468846002187EA0100AC
:1058100088EA01010843E4D1239015E00A2200231D
:105820005046594602F0BBF9D1B203AA239811544D
:105830000A2200235046594602F0B1F982468B46AF
:105840002398401CC0B22390369923988842E5DB08
:105850003EB100202B462D220090DDE93401FFF7F8
:1058600080FC344665E009EB0600A04216DD439853
:10587000A9F10101A31BC91A13AB0090595C303187
:10588000CAB205EBD5714B100295349903FB041194
:1058900088B22B463599FFF764FC48E009EB060017
:1058A000A0420FD1439805EBD5714A1002950090A4
:1058B000349902FB041188B22B462E223599FFF74A
:1058C00050FC34E023984844401C3044A0421FDD83
:1058D0004398009023994944A31BC91A03AB595C10
:1058E0003031CAB205EBD5714B100295349903FBE8
:1058F000041107E0000000000000000000000000AC
:105900000000F03F88B22B463599FFF72AFC0EE0E5
:10591000439805EBD5714A1002950090349902FB2B
:10592000041188B22B4620223599FFF71AFC601C1F
:10593000C4B23798844296DB24B0BDEC0E8B06B01F
:10594000BDE8F09F2DE9FE4F04460D4691469A466C
:10595000DDE90D8B0C9F07FB094082B22B462946DF
:105960002046FFF73CFB08FB1A5083B2224629462B
:105970002046FFF734FB07FB09439AB2EB1D99B2AF
:1059800007FB09430A3B98B22B46FFF728FB07FBAE
:1059900009439AB2EB1F99B207FB09430A3B98B23D
:1059A0002B46FFF71CFB08FB1A5293B208FB1A5256
:1059B0000A3291B2E21D90B22246FFF710FB08FBBB
:1059C0001A5293B208FB1A520A3291B2E21F90B2F5
:1059D0002246FFF704FB012018216A1DCDE90010C3
:1059E00091B2A4F10A0290B201230022FFF79EFCBB
:1059F00001207AA11822CDE9002102906A1D91B2FE
:105A000007FB094290B218231A46FFF732FD012026
:105A100073A11822CDE90021029008FB1A520A3A1C
:105A200091B2A4F1140290B218231A46FFF721FD97
:105A300001261BE0691F8BB207FB06418AB207FBF8
:105A4000064188B22946FFF7CAFA01201821CDE99C
:105A50000010109B03FB06B26B1D99B207FB0643B7
:105A6000143B98B20323FFF761FC761C4E45E1DB43
:105A700001261EE008FB165083B2601D82B208FBAF
:105A8000165081B22046FFF7AAFA01201821CDE96D
:105A90000010DDF844C00F9B0CFB063208FB1653C8
:105AA0000A3B99B2A4F1280398B20323FFF73EFC06
:105AB000761C5645DEDBBDE8FE8F30B50346C3EBF2
:105AC0004310FF2490FBF4F0C002C1EB8114FF25CA
:105AD00094FBF5F400EB4410C2EB421494FBF5F494
