:020000040800F2
:10000000E007002031690008890300088B0300081D
:100010008F03000893030008970300080000000006
:100020000000000000000000000000009B0300082A
:100030009D030008000000009F030008A1030008C2
:100040004B6900084B6900084B6900084B690008C0
:100050004B6900084B6900084B6900084B690008B0
:100060004B6900084B6900084B6900084B690008A0
:100070004B6900084B6900084B6900084B69000890
:100080004B6900084B6900084B6900084B69000880
:100090004B6900084B6900084B6900083D5900088E
:1000A0004B6900084B6900084B6900084B69000860
:1000B0004B6900084B6900084B6900084B69000850
:1000C0004B6900084B6900084B6900084B69000840
:1000D0004B690008A56800084B6900084B690008D7
:1000E0004B6900084B6900084B6900084B69000820
:1000F0004B6900084B6900084B6900084B69000810
:100100004B6900084B6900084B6900084B690008FF
:100110004B6900084B6900084B6900084B690008EF
:100120004B6900084B6900084B6900084B690008DF
:100130004B6900084B6900084B6900084B690008CF
:100140004B6900084B6900084B6900084B690008BF
:100150004B6900084B6900084B6900084B690008AF
:100160004B6900084B6900084B6900084B6900089F
:100170004B6900084B6900084B6900084B6900088F
:100180004B6900084B69000800F002F800F041F8E4
:100190000AA090E8000C82448344AAF10107DA45E2
:1001A00001D100F036F8AFF2090EBAE80F0013F0F3
:1001B000010F18BFFB1A43F001031847B0BF00003E
:1001C000D0BF0000103A24BF78C878C1FAD85207CF
:1001D00024BF30C830C144BF04680C6070470000C1
:1001E0000023002400250026103A28BF78C1FBD840
:1001F000520728BF30C148BF0B607047782908F00C
:100200006981002070471FB508F084FF1FBD10B53D
:1002100010BD08F017FA1146FFF7F5FF00F008F8D7
:1002200008F035FA03B4FFF7F2FF03BC06F0DCFA7E
:100230001CB5002500BF00BF4FF4A06006F098FB7E
:10024000A82006F04FFA4FF4E13006F0D9FA00F09A
:10025000B1F901F088F8012000F064FE00F091FB94
:1002600006F0C2F94FF6FF7001F04BF81F2001F0C5
:1002700048F84FF6FF7001F044F840F2CF102B49D8
:1002800008802BA018210B464FF4D272CDE9001044
:1002900014211E2004F0CFFF2AA018210B464FF492
:1002A000D272CDE9001032211E2004F0C4FF29A033
:1002B00018210B464FF4D272CDE9001050211E20B8
:1002C00004F0B9FF4FF478401849088026A018219F
:1002D0000B464FF4D272CDE900106E211E2004F0BF
:1002E000AAFF1F201149088024A018210B46C8220C
:1002F000CDE900108C211E2004F09DFF15E00120A7
:1003000006F0B0F90446C4EB0410400140F6FF715A
:1003100090FBF1F086B229466D1C88B2314600F0A0
:1003200005FDB5F5487F00DD0025E8E71400002055
:100330004E616E6A696E6720556E69766572736983
:100340007479000020202045452047726F75702089
:10035000342000004D696E6164756B6920536869D3
:1003600067757265000000004C43442641444320F9
:1003700053706565642054657374000041444320E4
:100380005241573A00000000704700BFFEE700BF2F
:10039000FEE700BFFEE700BFFEE77047704770470B
:1003A000704700000CB5002001900090764800686E
:1003B00040F480307449086000BF7348006800F45E
:1003C000003000900198401C0190009818B90198E5
:1003D000B0F5A04FF1D16C48006800F4003010B1C6
:1003E0000120009001E0002000900098012846D1F3
:1003F00065484030006840F08050634940310860F3
:100400006248006840F44040604908605E48083037
:1004100000685D49083108600846006840F4004003
:1004200008600846006840F4A05008605848091F5A
:100430000860081F006840F08070091F086000BF56
:100440005148006800F000700028F9D040F20570B3
:10045000504908604C480830006820F003004A49C1
:10046000083108600846006840F00200086000BFDC
:1004700045480830006800F00C000828F8D10CBD91
:1004800010B54548006840F47000434908603E4894
:10049000006840F001003C49086000203A490831FA
:1004A0000860394800683D490840374908603C48C1
:1004B000091D0860081F006820F48020091F0860DB
:1004C000002031490C310860FFF76CFF4FF00060ED
:1004D00031498039086010BD70B500200022022328
:1004E00000240221284D08352D6805F00C0020B1AC
:1004F000042806D0082834D107E02A4D2A4E35605A
:1005000033E02A4D284E35602FE01F4D2D1D2D68FC
:10051000C5F380541C4D2D1D2D6805F03F0154B1CD
:10052000224DB5FBF1F5184E361D3668C6F3881618
:1005300005FB06F209E01B4DB5FBF1F5124E361D29
:100540003668C6F3881605FB06F20F4D2D1D2D6883
:10055000C5F301456D1C6B00B2FBF3F5124E35601F
:1005600003E0104D104E356000BF00BF064D08354A
:100570002D68C5F303150E4E705D0B4D2D68C540FB
:10058000094E356070BD0000003802400070004028
:1005900019544007003C024088ED00E0FFFFF6FEE2
:1005A000103000240024F4000000002040787D0179
:1005B000040000201CB50121402007F051F8012063
:1005C0008DF804000220009001208DF80700002023
:1005D0008DF8060003208DF805006946F74806F0FF
:1005E000BDFA1CBD01B5BDF800000090BDF80000CB
:1005F000F349088008BD01B5BDF800000090BDF8C2
:100600000000EF49891C088008BD08B5EC48801C33
:1006100000880090BDF8000008BDE94A10804FF046
:10062000D842A2F88010704710B504462046FFF764
:10063000D9FF052006F070F8FFF7E7FF10BDE1488D
:100640000089DF4908807047DD49891C08807047B0
:1006500030B5014601F01F04C1F34513CA0AE50293
:1006600005EB43151544A8B230BD00BF011EA0F133
:100670000102D0B2FAD1704730B504460D46D148D8
:10068000808849F24131884205D0CE48808845F2C1
:100690001031884214D1CB494889FFF7A3FF2012BB
:1006A000FFF7A9FFE0B2FFF7A6FFC6498889FFF769
:1006B00099FF2812FFF79FFFE8B2FFF79CFFABE01E
:1006C000C048808846F6040188421DD1BD48807923
:1006D000012804D1BB480088401E001B84B2B949E0
:1006E0004889FFF77FFF2012FFF785FFE0B2FFF791
:1006F00082FFB4498889FFF775FF2812FFF77BFF57
:10070000E8B2FFF778FF87E0AE48808841F66311D2
:10071000884247D1AB488079A8B9AA480088401ED2
:10072000001B84B2A7494889FFF75CFF0020FFF750
:1007300062FF0020FFF75FFF2012FFF75CFFE0B2CF
:10074000FFF759FF16E09F494889FFF74BFF20123A
:10075000FFF751FFE0B2FFF74EFF9A490988491EA3
:10076000C1F30F20FFF747FF96490978491EC8B229
:10077000FFF741FF93498889FFF734FF2812FFF7FD
:100780003AFFE8B2FFF737FF8E494988491EC1F3A7
:100790000F20FFF730FF8B498978491EC8B2FFF759
:1007A0002AFF39E08748808845F21051884220D1DD
:1007B00084494889FFF716FF2012FFF71CFF814983
:1007C0004989491C88B2FFF70DFFE0B2FFF713FF1C
:1007D0007C498889FFF706FF2812FFF70CFF79494B
:1007E0008989491C88B2FFF7FDFEE8B2FFF703FFD5
:1007F00012E074488079012804D172480088401EB4
:10080000001B84B26F4948892146FFF706FF6D49F6
:1008100088892946FFF701FF30BD2DE9F0410546E3
:100820000E4600240027A04666480088A84203DD43
:1008300064484088B04202DC0020BDE8F0813146C7
:100840002846FFF719FF5F48808849F24131884206
:1008500011D05C48808846F6040188420BD0594884
:10086000808845F21031884205D05648808841F68C
:100870006311884203D12E20FFF7B4FE0DE05148EA
:10088000808845F21051884204D14FF43850FFF768
:10089000A9FE02E02220FFF7A5FE4A48808849F21F
:1008A0002031884202D10220FFF7DFFEFFF7ADFEC4
:1008B00004464448808841F66311884201D12046AD
:1008C000BBE70220FFF7D1FEFFF79FFE04463D483D
:1008D000808849F2413188420BD03A48808845F2FD
:1008E0001031884205D03748808845F2105188423F
:1008F0000AD10220FFF7B9FEFFF787FE8046E7B274
:100900004FF6FF7000EA07272E48808849F225310C
:10091000884216D02B48808844F23551884210D046
:1009200028488088091F88420BD0264880884BF2CF
:100930000551884205D0234880884CF205518842F1
:1009400001D1204679E71F48808849F24131884229
:100950000BD01C48808845F21031884205D01948D8
:10096000808845F21051884207D1E012C002B912C6
:1009700040EA411040EAE8205FE72046FFF768FEC2
:100980005BE700B50F48808849F24131884211D0B9
:100990000C48808846F6040188420BD009488088BC
:1009A00045F21031884205D00648808841F663112F
:1009B000884209D12920FFF715FE15E000180240F2
:1009C0007E00006C60000020FE48808845F21051D7
:1009D000884204D14FF42450FFF704FE04E040F2B3
:1009E00073110720FFF719FE00BD00B5F548808898
:1009F00049F24131884211D0F248808846F604011C
:100A000088420BD0EF48808845F21031884205D0EB
:100A1000EC48808841F66311884203D12820FFF713
:100A2000E1FD0EE0E748808845F21051884204D18C
:100A30004FF42050FFF7D6FD03E000210720FFF719
:100A4000ECFD00BDF0B5054600240027DD488079A7
:100A500001280BD1DB48808846F60401884205D086
:100A6000D848808841F66311884208D1D5488079FA
:100A7000F0B9D448808841F66311884218D1082D16
:100A800015D2DFE805F00406080A0C0E1012062540
:100A90000DE007250BE0042509E0052507E0012509
:100AA00005E0002503E0032501E0022500BF00BFAB
:100AB000C448808849F24131884217D0C1488088B3
:100AC00046F60401884211D0BE48808845F21031B4
:100AD00088420BD0BB48808845F21051884205D02F
:100AE000B848808841F6631188427DD1082D1CD218
:100AF000DFE805F00406090C0F12151800BF14E01A
:100B000044F0800411E044F040040EE044F0C004DE
:100B10000BE044F0200408E044F0600405E044F0F9
:100B2000A00402E044F0E00400BF00BFA5488088B4
:100B300045F21051884202D14FF4585700E0362751
:100B4000A048808845F2103188420DD09D488088A9
:100B500045F21051884207D09A48808841F66311C7
:100B6000884201D044F008049648808846F6040183
:100B7000884201D144F0020421463846FFF74DFD7A
:100B80009048808841F6631188421DD004F020000F
:100B900068B18C4800888B494988884214DA8948B2
:100BA0000688408887490880084646800CE08548CA
:100BB000008884494988884206DD82480688408842
:100BC00080490880084646807E48808845F210515A
:100BD000884254D17B494889FFF704FD0020FFF784
:100BE0000AFD7849498900E078E0491C88B2FFF79E
:100BF000F9FC0020FFF7FFFC72494989891C88B283
:100C0000FFF7F0FC6F490988491EC1F30F20FFF779
:100C1000F2FC6C494989C91C88B2FFF7E3FC6949B9
:100C20000978491EC8B2FFF7E6FC66498889FFF7D4
:100C3000D9FC0020FFF7DFFC62498989491C88B292
:100C4000FFF7D0FC0020FFF7D6FC5E498989891C9C
:100C500088B2FFF7C7FC5B494988491EC1F30F20E2
:100C6000FFF7C9FC57498989C91C88B2FFF7BAFC4C
:100C700054498978491EC8B2FFF7BDFC55E0514977
:100C80004889FFF7AFFC0020FFF7B5FC0020FFF715
:100C9000B2FC4C490988491EC1F30F20FFF7ABFC99
:100CA00048490978491EC8B2FFF7A5FC454988891B
:100CB000FFF798FC0020FFF79EFC0020FFF79BFC4D
:100CC00040494988491EC1F30F20FFF794FC3D4974
:100CD0008978491EC8B2FFF78EFC26E0082D1CD289
:100CE000DFE805F004070A0D0F12151844F0300470
:100CF00013E044F0100410E044F020040DE000BFC5
:100D00000BE044F0380408E044F0280405E044F027
:100D1000180402E044F0080400BF00BF032744F4B5
:100D2000805421463846FFF778FCF0BD30B50446C4
:100D30000D4629462046FFF79FFCFFF780FC22481E
:100D400000882249088030BD70B504460D4616461D
:100D50001C48808849F24131884205D01948808872
:100D600045F21031884214D116494889FFF73AFC00
:100D70002012FFF740FCE0B2FFF73DFC11498889E3
:100D8000FFF730FC2812FFF736FCE8B2FFF733FC20
:100D900093E00C48808845F21051884227D10949D8
:100DA0004889FFF71FFC2012FFF725FC05494989F8
:100DB000491C88B2FFF716FCE0B2FFF71CFC0149A2
:100DC000888905E060000020140000208000006C8D
:100DD000FFF708FC2812FFF70EFCFE498989491C21
:100DE00088B2FFF7FFFBE8B2FFF705FC65E0F948C2
:100DF000808841F66311884228D1F648807920B96D
:100E0000F4480088401E001B84B2F2494889FFF76D
:100E1000E9FB2012FFF7EFFBE0B2FFF7ECFB20123B
:100E2000FFF7E9FBE0B2FFF7E6FBEA498889FFF745
:100E3000D9FB2812FFF7DFFBE8B2FFF7DCFB281233
:100E4000FFF7D9FBE8B2FFF7D6FB36E0E148808830
:100E500046F6040188421DD1DE488079012804D17C
:100E6000DC480088401E001B84B2DA494889FFF73D
:100E7000B9FB2012FFF7BFFBE0B2FFF7BCFBD5497F
:100E80008889FFF7AFFB2812FFF7B5FBE8B2FFF741
:100E9000B2FB12E0CF488079012804D1CD48008808
:100EA000401E001B84B2CB4948892146FFF7B5FBA1
:100EB000C84988892946FFF7B0FBC6480089C6495A
:100EC00008804FF0D840A0F8806070BD70B52DED5F
:100ED000048B0446BE20FFF785FB0520FFF78BFB44
:100EE000204607F08EFE41EC190B9FEDBC0B53EC36
:100EF000102B07F01BFF41EC180B07F0EDFD85B23E
:100F00002846FFF778FB0120FFF775FBFF20FFF76E
:100F100072FB0020FFF76FFB0020FFF76CFBBDECBE
:100F2000048B70BD10B50446002C66D1A9498871A8
:100F3000F02008804FF4A07048800846808849F26D
:100F4000413188420BD0A348808846F6040188428C
:100F500005D0A048808845F2103188421AD12C2053
:100F60009C4908812A2048812B2088810846808856
:100F700046F60401884205D09648808845F2103133
:100F8000884206D14FF4A070924908804FF4F07067
:100F90004880A1E08F48808845F21051884210D1E6
:100FA0004FF430508B4908814FF4285048814FF45A
:100FB0002C5088814FF4F07008804FF448704880BE
:100FC0008AE08448808841F6631188420DD12C2044
:100FD000804908812B2048812A2088814FF4F070B5
:100FE00008804FF44870488076E0222079490881D3
:100FF00020204881212088816EE001207549887178
:101000004FF4A0700880F02048800846808849F29C
:101010004131884205D06F48808845F210318842BE
:1010200007D12C206B4908812A2048812B208881F8
:101030003FE06848808846F60401884207D12C20AA
:10104000644908812B2048812A20888131E0614849
:10105000808845F21051884210D14FF430505D49DC
:1010600008814FF4285048814FF42C5088814FF468
:10107000487008804FF4F07048801AE05548808826
:1010800041F6631188420DD12C20524908812A2053
:1010900048812B2088814FF4487008804FF4F0700D
:1010A000488006E022204B490881212048812020E9
:1010B00088814848808846F60401884205D0454822
:1010C000808845F21031884206D14FF4F0704149D2
:1010D00008804FF4A07048800020FFF7B3FC10BDDB
:1010E0002DE9F04F86B004460D469046994604EB34
:1010F0000800401E86B205EB0900401E87B2354845
:10110000808849F24131884215D03248808845F2C2
:10111000103188420FD02F48808846F6040188425B
:1011200009D02C488079012826D12A48808841F6A8
:101130006311884220D127494889FFF753FA2012CA
:10114000FFF759FAE0B2FFF756FA3012FFF753FAF9
:10115000F0B2FFF750FA1F498889FFF743FA2812C7
:10116000FFF749FAE8B2FFF746FA3812FFF743FAF9
:10117000F8B2FFF740FAC1E01648808841F66311E3
:1011800088423DD113480088A0EB0800001B84B2C0
:1011900005EB0900401E1FFA80F90E494889FFF748
:1011A00021FA2012FFF727FAE0B2FFF724FA04EB46
:1011B0000801491EC1F30F20FFF71DFA04EB0801D7
:1011C000491EC8B2FFF717FA02498889FFF70AFAE1
:1011D000281207E0600000207E00006C66666666EC
:1011E00066660440FFF707FAE8B2FFF704FA4FEA31
:1011F0002920FFF700FA09F0FF00FFF7FCF97DE076
:10120000FE48808845F21051884244D1FB49488904
:10121000FFF7E8F92012FFF7EEF9F8494989491C70
:1012200088B2FFF7DFF9E0B2FFF7E5F9F349498942
:10123000891C88B2FFF7D6F93012FFF7DCF9EF49C5
:101240004989C91C88B2FFF7CDF9F0B2FFF7D3F98D
:10125000EA498889FFF7C6F92812FFF7CCF9E74970
:101260008989491C88B2FFF7BDF9E8B2FFF7C3F9D5
:10127000E2498989891C88B2FFF7B4F93812FFF76F
:10128000BAF9DE498989C91C88B2FFF7ABF9F8B20F
:10129000FFF7B1F932E0D948807901280ED1AA468A
:1012A000BB46D6480088801B401E80B20190D348C0
:1012B0000088001B401E80B2009003E0A246B346A7
:1012C00001950097502005905120049052200390E2
:1012D0005320029051460598FFF79FF9594604980C
:1012E000FFF79BF901990398FFF797F90099029886
:1012F000FFF793F929462046FFF7BEF906B0BDE88F
:10130000F08F70B504460026BC48058840884543E8
:10131000BA48808846F60401884216D1B7488079D9
:10132000012812D10020B54988712A2048812B203C
:10133000888100210846FFF79FF90120AF49887195
:101340002B2048812A20888103E000210846FFF7EE
:1013500093F9FFF774F9002602E0A9480480761C8F
:10136000AE42FAD370BD00B5A1B00020209001219B
:101370007A2006F075F90121084606F0A9F94FF424
:1013800000401E9001208DF87C0000208DF87E002A
:1013900002208DF87D0001208DF87F001EA999485C
:1013A00005F0DCFB4CF233701E9002208DF87C00BF
:1013B00000208DF87E0003208DF87D0001208DF83F
:1013C0007F001EA9904805F0C9FB4FF680701E9063
:1013D00002208DF87C0000208DF87E0003208DF81F
:1013E0007D0001208DF87F001EA9884805F0B6FB1E
:1013F0004FF480501E9002208DF87C0000208DF864
:101400007E0003208DF87D0001208DF87F001EA94D
:101410007F4805F0A3FB4FF480501E9002208DF80A
:101420007C0000208DF87E0003208DF87D000120D7
:101430008DF87F001EA9774805F090FB0C22002153
:10144000714805F016FC0C2201216F4805F011FCD3
:101450000C2204216C4805F00CFC0C2205216A4882
:1014600005F007FC0C220821674805F002FC0C225D
:101470000921654805F0FDFB0C220A21624805F0B0
:10148000F8FB0C220E21604805F0F3FB0C220F2123
:101490005D4805F0EEFB0C2207215C4805F0E9FBF6
:1014A0000C220821594805F0E4FB0C220921574879
:1014B00005F0DFFB0C220A21544805F0DAFB0C2270
:1014C0000B21524805F0D5FB0C2211464F4805F080
:1014D000D0FB0C220D214D4805F0CBFB0C220E2138
:1014E0004A4805F0C6FB0C220F21484805F0C1FB15
:1014F0000C221146464805F0BCFB0C22114645481B
:1015000005F0B7FB0F200890002009903C200A90BE
:1015100000200B900C900D900E900920019000205F
:1015200002900820039000200490059006900790F8
:1015300006200F9000201090119010201290002093
:10154000139015901490169017904FF480501890A7
:10155000002019904FF480401A9000201B9008A89A
:101560001C9001A81D900FA805F0D7FB01210620B3
:1015700005F05EFC0221274805F06CFB0A2005F00F
:1015800013F90221234805F067FB0A2005F00CF946
:101590000221204805F05EFB322005F005F901210B
:1015A0000020FFF73AF8322005F0FEF80020FFF7A0
:1015B0003BF81249888008468088FF280ADB0846E5
:1015C00080884FF6FF71884204D00C488088B0F5BF
:1015D000134F7DD1D320FFF705F8FFF716F8074921
:1015E0008880FFF712F805498880FFF70EF8034955
:1015F0008880084680884FF6FF710DE0600000206B
:101600008000006C00040240000C02400010024008
:10161000001402400018024001EA0020FE498880C0
:10162000FEF7F3FFFC4989880843FB498880084698
:10163000808849F2413188424AD0BF20FEF7D2FF6C
:10164000FEF7E3FFF4498880FEF7DFFFF249888068
:10165000FEF7DBFFF0498880FEF7D7FFEE49888070
:10166000084680884FF6FF7101EA0020EA49888029
:10167000FEF7CBFFE84989880843E7498880084698
:10168000808846F6040188427AD0D420FEF7AAFF6B
:10169000FEF7BBFFE0498880FEF7B7FFDE49888090
:1016A000FEF7B3FFDC498880084680884FF6FF715B
:1016B00001EA0020D8498880FEF7A7FFD64989882B
:1016C0000843D54988800846808845F2103100E0FB
:1016D00056E0884254D04FF45A40FEF783FFFEF79D
:1016E00094FFCD4988804FF45B40FEF77BFFFEF707
:1016F0008CFFC9498880084680884FF6FF7101EA4F
:101700000020C54988804FF45C40FEF76BFFFEF770
:101710007CFFC14989880843BF4988800846808882
:10172000B0F5004F02D145F210508880BA48808849
:1017300045F21051884223D0A120FEF753FFFEF757
:1017400064FFB5498880FEF760FFB349888008468A
:1017500080884FF6FF7101EA0020AF498880FEF7CC
:1017600054FFAD4989880843AB4988800846808882
:1017700045F26171884203D141F66310A649888021
:10178000A548808849F24131884211D0A24880881A
:1017900045F2103188420BD09F48808845F21051A5
:1017A000884205D09C48808841F6631188421DD14B
:1017B0009A48006820F00F004FF02041C1F81C014A
:1017C0000846D0F81C0120F47060C1F81C010846DE
:1017D000D0F81C0140F00300C1F81C010846D0F805
:1017E0001C0140F40070C1F81C0128E08A48808880
:1017F00046F60401884205D0874880884CF205519E
:1018000088421CD18548006820F00F004FF020412D
:10181000C1F81C010846D0F81C0120F47060C1F822
:101820001C010846D0F81C0140F00A00C1F81C0158
:101830000846D0F81C0140F44060C1F81C0176480D
:10184000818877A006F006FE7348808849F241310E
:1018500088427CD1CF20FEF7C5FE0020FEF7CBFEEC
:10186000C120FEF7C8FE3020FEF7C5FEED20FEF7D2
:10187000B9FE6420FEF7BFFE0320FEF7BCFE122077
:10188000FEF7B9FE8120FEF7B6FEE820FEF7AAFEBD
:101890008520FEF7B0FE1020FEF7ADFE7A20FEF7A1
:1018A000AAFECB20FEF79EFE3920FEF7A4FE2C20D8
:1018B000FEF7A1FE0020FEF79EFE3420FEF79BFE01
:1018C0000220FEF798FEF720FEF78CFE2020FEF7A0
:1018D00092FEEA20FEF786FE0020FEF78CFE002036
:1018E000FEF789FEC020FEF77DFE1B20FEF783FE7B
:1018F000C120FEF777FE0120FEF77DFEC520FEF732
:1019000071FE3020FEF777FE3020FEF774FEC72010
:10191000FEF768FEB720FEF76EFE3620FEF762FE89
:101920004820FEF768FE3A20FEF75CFE5520FEF7E1
:1019300062FEB120FEF756FE0020FEF75CFE1A2084
:10194000FEF759FEB620FEF74DFE0A2000E0A6E0A5
:10195000FEF751FEA220FEF74EFEF220FEF742FEF9
:101960000020FEF748FE2620FEF73CFE0120FEF791
:1019700042FEE020FEF736FE0F20FEF73CFE2A2056
:10198000FEF739FE2820FEF736FE0820FEF733FE6C
:101990000E20FEF730FE0820FEF72DFE5420FEF745
:1019A0002AFEA920FEF727FE4320FEF724FE0A2088
:1019B000FEF721FE0F20FEF71EFE0020FEF71BFEA5
:1019C0000020FEF718FE0020FEF715FE0020FEF7AF
:1019D00012FEE120FEF706FE0020FEF70CFE1520A9
:1019E000FEF709FE1720FEF706FE0720FEF703FEAE
:1019F0001120FEF700FE0620FEF7FDFD2B20FEF76E
:101A0000FAFD5620FEF7F7FD3C20FEF7F4FD052019
:101A1000FEF7F1FD10200BE0600000201C0100A08B
:101A2000204C43442049443A25780D0A0000000028
:101A3000FEF7E1FD0F20FEF7DEFD3F20FEF7DBFDA8
:101A40003F20FEF7D8FD0F20FEF7D5FD2B20FEF737
:101A5000C9FD0020FEF7CFFD0020FEF7CCFD0120E0
:101A6000FEF7C9FD3F20FEF7C6FD2A20FEF7BAFDAE
:101A70000020FEF7C0FD0020FEF7BDFD0020FEF7B0
:101A8000BAFDEF20FEF7B7FD1120FEF7ABFD782081
:101A900004F08AFE2920FEF7A5FD03F01DB9FE48DB
:101AA000808846F6040188427ED11120FEF79AFD17
:101AB000142004F079FED020FEF794FD0720FEF7F5
:101AC0009AFD4220FEF797FD1D20FEF794FDD120E0
:101AD000FEF788FD0020FEF78EFD1A20FEF78BFD35
:101AE0000920FEF788FDD220FEF77CFD0120FEF7DD
:101AF00082FD2220FEF77FFDC020FEF773FD10203F
:101B0000FEF779FD3B20FEF776FD0020FEF773FD22
:101B10000220FEF770FD1120FEF76DFDC520FEF7D7
:101B200061FD0320FEF767FDC820FEF75BFD002086
:101B3000FEF761FD2520FEF75EFD2120FEF75BFD2F
:101B40000520FEF758FD0020FEF755FD0A20FEF7A0
:101B500052FD6520FEF74FFD2520FEF74CFD772056
:101B6000FEF749FD5020FEF746FD0F20FEF743FD2E
:101B70000020FEF740FDF820FEF734FD0120FEF7BF
:101B80003AFDFE20FEF72EFD0020FEF734FD022078
:101B9000FEF731FD2020FEF725FD3620FEF722FD61
:101BA0000820FEF728FD00E02AE03A20FEF71AFDA3
:101BB0005520FEF720FD2B20FEF714FD0020FEF738
:101BC0001AFD0020FEF717FD0120FEF714FD3F204F
:101BD000FEF711FD2A20FEF705FD0020FEF70BFDA4
:101BE0000020FEF708FD0120FEF705FDDF20FEF7CF
:101BF00002FD782004F0D8FD2920FEF7F3FC4CE725
:101C0000A548808845F21031884240F07C87ED205D
:101C1000FEF7E8FC0120FEF7EEFCFE20FEF7EBFCF1
:101C2000EE20FEF7DFFCDE20FEF7E5FC2120FEF7CC
:101C3000E2FCF120FEF7D6FC0120FEF7DCFCDF2001
:101C4000FEF7D0FC1020FEF7D6FCC420FEF7CAFC3D
:101C50008F20FEF7D0FCC620FEF7C4FC0020FEF764
:101C6000CAFCE220FEF7C7FCE220FEF7C4FCE2203B
:101C7000FEF7C1FCBF20FEF7B5FCAA20FEF7BBFCB7
:101C8000B020FEF7AFFC0D20FEF7B5FC0020FEF7FC
:101C9000B2FC0D20FEF7AFFC0020FEF7ACFC1120DB
:101CA000FEF7A9FC0020FEF7A6FC1920FEF7A3FC16
:101CB0000020FEF7A0FC2120FEF79DFC0020FEF78F
:101CC0009AFC2D20FEF797FC0020FEF794FC3D20A7
:101CD000FEF791FC0020FEF78EFC5D20FEF78BFCEA
:101CE0000020FEF788FC5D20FEF785FC0020FEF753
:101CF00082FCB120FEF776FC8020FEF77CFC002001
:101D0000FEF779FC8B20FEF776FC0020FEF773FCD3
:101D10009620FEF770FC0020FEF76DFCB220FEF767
:101D200061FC0020FEF767FC0020FEF764FC022047
:101D3000FEF761FC0020FEF75EFC0320FEF75BFC73
:101D40000020FEF758FCB320FEF74CFC0020FEF705
:101D500052FC0020FEF74FFC0020FEF74CFC002058
:101D6000FEF749FC0020FEF746FC0020FEF743FC8E
:101D70000020FEF740FC0020FEF73DFC0020FEF7AF
:101D80003AFC0020FEF737FC0020FEF734FC002070
:101D9000FEF731FC0020FEF72EFC0020FEF72BFCA6
:101DA0000020FEF728FC0020FEF725FC0020FEF7AF
:101DB00022FC0020FEF71FFC0020FEF71CFC002088
:101DC000FEF719FC0020FEF716FC0020FEF713FCBE
:101DD0000020FEF710FC0020FEF70DFCB420FEF7FB
:101DE00001FC8B20FEF707FC0020FEF704FC962088
:101DF000FEF701FC0020FEF7FEFBA120FEF7FBFB37
:101E00000020FEF7F8FBB520FEF7ECFB0220FEF702
:101E1000F2FB0020FEF7EFFB0320FEF7ECFB0020B7
:101E2000FEF7E9FB0420FEF7E6FB0020FEF7E3FBEC
:101E3000B620FEF7D7FB0020FEF7DDFB0020FEF703
:101E4000DAFBB720FEF7CEFB0020FEF7D4FB002024
:101E5000FEF7D1FB3F20FEF7CEFB0020FEF7CBFBC9
:101E60005E20FEF7C8FB0020FEF7C5FB6420FEF7EE
:101E7000C2FB0020FEF7BFFB8C20FEF7BCFB00205E
:101E8000FEF7B9FBAC20FEF7B6FB0020FEF7B3FB74
:101E9000DC20FEF7B0FB01E0600000200020FEF730
:101EA000AAFB7020FEF7A7FB0020FEF7A4FB902002
:101EB000FEF7A1FB0020FEF79EFBEB20FEF79BFB4D
:101EC0000020FEF798FBDC20FEF795FB0020FEF7D4
:101ED00092FBB820FEF786FB0020FEF78CFB00206B
:101EE000FEF789FB0020FEF786FB0020FEF783FB50
:101EF0000020FEF780FB0020FEF77DFB0020FEF7B0
:101F00007AFB0020FEF777FBBA20FEF76BFB24205C
:101F1000FEF771FB0020FEF76EFB0020FEF76BFB67
:101F20000020FEF768FBC120FEF75CFB2020FEF7D7
:101F300062FB0020FEF75FFB5420FEF75CFB0020F5
:101F4000FEF759FBFF20FEF756FB0020FEF753FB80
:101F5000C220FEF747FB0A20FEF74DFB0020FEF7EC
:101F60004AFB0420FEF747FB0020FEF744FBC3209A
:101F7000FEF738FB3C20FEF73EFB0020FEF73BFB64
:101F80003A20FEF738FB0020FEF735FB3920FEF73C
:101F900032FB0020FEF72FFB3720FEF72CFB002042
:101FA000FEF729FB3C20FEF726FB0020FEF723FB73
:101FB0003620FEF720FB0020FEF71DFB3220FEF747
:101FC0001AFB0020FEF717FB2F20FEF714FB002062
:101FD000FEF711FB2C20FEF70EFB0020FEF70BFB9B
:101FE0002920FEF708FB0020FEF705FB2620FEF760
:101FF00002FB0020FEF7FFFA2420FEF7FCFA002087
:10200000FEF7F9FA2420FEF7F6FA0020FEF7F3FABD
:102010002320FEF7F0FA0020FEF7EDFA3C20FEF751
:10202000EAFA0020FEF7E7FA3620FEF7E4FA00208D
:10203000FEF7E1FA3220FEF7DEFA0020FEF7DBFAC7
:102040002F20FEF7D8FA0020FEF7D5FA2C20FEF755
:10205000D2FA0020FEF7CFFA2920FEF7CCFA0020B2
:10206000FEF7C9FA2620FEF7C6FA0020FEF7C3FAEB
:102070002420FEF7C0FA0020FEF7BDFA2420FEF768
:10208000BAFA0020FEF7B7FA2320FEF7B4FA0020D0
:10209000FEF7B1FAC420FEF7A5FA6220FEF7ABFA0C
:1020A0000020FEF7A8FA0520FEF7A5FA0020FEF7AB
:1020B000A2FA8420FEF79FFA0020FEF79CFAF02097
:1020C000FEF799FA0020FEF796FA1820FEF793FA29
:1020D0000020FEF790FAA420FEF78DFA0020FEF70C
:1020E0008AFA1820FEF787FA0020FEF784FA5020BB
:1020F000FEF781FA0020FEF77EFA0C20FEF77BFA4D
:102100000020FEF778FA1720FEF775FA0020FEF798
:1021100072FA9520FEF76FFA0020FEF76CFAF320B2
:10212000FEF769FA0020FEF766FAE620FEF763FA8A
:102130000020FEF760FAC520FEF754FA3220FEF7C1
:102140005AFA0020FEF757FA4420FEF754FA00200E
:10215000FEF751FA6520FEF74EFA0020FEF74BFA23
:102160007620FEF748FA0020FEF745FA8820FEF7B1
:1021700042FA0020FEF73FFAC620FEF733FA20208D
:10218000FEF739FA0020FEF736FA1720FEF733FA89
:102190000020FEF730FA0120FEF72DFA0020FEF7AE
:1021A0002AFAC720FEF71EFA0020FEF724FA0020C4
:1021B000FEF721FA0020FEF71EFA0020FEF71BFAB8
:1021C000C820FEF70FFA0020FEF715FA0020FEF7F0
:1021D00012FA0020FEF70FFA0020FEF70CFAC920D1
:1021E000FEF700FA0020FEF706FA0020FEF703FAD9
:1021F0000020FEF700FA0020FEF7FDF90020FEF7B0
:10220000FAF90020FEF7F7F90020FEF7F4F90020B4
:10221000FEF7F1F90020FEF7EEF90020FEF7EBF9EA
:102220000020FEF7E8F90020FEF7E5F90020FEF7B0
:10223000E2F90020FEF7DFF90020FEF7DCF90020CC
:10224000FEF7D9F9E020FEF7CDF91620FEF7D3F915
:102250000020FEF7D0F91C20FEF7CDF90020FEF794
:10226000CAF92120FEF7C7F90020FEF7C4F936208D
:10227000FEF7C1F90020FEF7BEF94620FEF7BBF9D4
:102280000020FEF7B8F95220FEF7B5F90020FEF75E
:10229000B2F96420FEF7AFF90020FEF7ACF97A201E
:1022A000FEF7A9F90020FEF7A6F98B20FEF7A3F9A7
:1022B0000020FEF7A0F99920FEF79DF90020FEF717
:1022C0009AF9A820FEF797F90020FEF794F9B920B3
:1022D000FEF791F90020FEF78EF9C420FEF78BF986
:1022E0000020FEF788F9CA20FEF785F90020FEF7E6
:1022F00082F9D220FEF77FF90020FEF77CF9D92081
:10230000FEF779F90020FEF776F9E020FEF773F981
:102310000020FEF770F9F320FEF76DF90020FEF7BC
:102320006AF9E120FEF75EF91620FEF764F9002055
:10233000FEF761F91C20FEF75EF90020FEF75BF95D
:102340002220FEF758F90020FEF755F93620FEF757
:1023500052F90020FEF74FF94520FEF74CF9002016
:10236000FEF749F95220FEF746F90020FEF743F93F
:102370006420FEF740F90020FEF73DF97A20FEF7D1
:102380003AF90020FEF737F98B20FEF734F90020E8
:10239000FEF731F99920FEF72EF90020FEF72BF910
:1023A000A820FEF728F90020FEF725F9B920FEF74E
:1023B00022F90020FEF71FF9C420FEF71CF90020C7
:1023C000FEF719F9CA20FEF716F90020FEF713F9F7
:1023D000D220FEF710F90020FEF70DF9D820FEF705
:1023E0000AF90020FEF707F9E020FEF704F90020C3
:1023F000FEF701F9F320FEF7FEF80020FEF7FBF8E8
:10240000E220FEF7EFF80520FEF7F5F80020FEF7D2
:10241000F2F80B20FEF7EFF80020FEF7ECF81B2097
:10242000FEF7E9F80020FEF7E6F83420FEF7E3F8BF
:102430000020FEF7E0F84420FEF7DDF80020FEF76C
:10244000DAF84F20FEF7D7F80020FEF7D4F8612025
:10245000FEF7D1F80020FEF7CEF87920FEF7CBF892
:102460000020FEF7C8F88820FEF7C5F80020FEF728
:10247000C2F89720FEF7BFF80020FEF7BCF8A620B0
:10248000FEF7B9F80020FEF7B6F8B720FEF7B3F86C
:102490000020FEF7B0F8C220FEF7ADF80020FEF7EE
:1024A000AAF8C720FEF7A7F80020FEF7A4F8D1206D
:1024B000FEF7A1F80020FEF79EF8D620FEF79BF865
:1024C0000020FEF798F8DD20FEF795F80020FEF7D3
:1024D00092F8F320FEF78FF80020FEF78CF8E32047
:1024E000FEF780F80520FEF786F80020FEF783F857
:1024F0000A20FEF780F80020FEF77DF81C20FEF78A
:102500007AF80020FEF777F83320FEF774F8002001
:10251000FEF771F84420FEF76EF80020FEF76BF826
:102520005020FEF768F80020FEF765F86220FEF7FD
:1025300062F80020FEF75FF87820FEF75CF80020D4
:10254000FEF759F88820FEF756F80020FEF753F8FA
:102550009720FEF750F80020FEF74DF8A620FEF772
:102560004AF80020FEF747F8B720FEF744F80020AD
:10257000FEF741F8C220FEF73EF80020FEF73BF8D8
:10258000C720FEF738F80020FEF735F8D120FEF717
:1025900032F80020FEF72FF8D520FEF72CF80020A7
:1025A000FEF729F8DD20FEF726F80020FEF723F8D5
:1025B000F320FEF720F80020FEF71DF8E420FEF7D8
:1025C00011F80120FEF717F80020FEF714F801209B
:1025D000FEF711F80020FEF70EF80220FEF70BF8C8
:1025E0000020FEF708F82A20FEF705F80020FEF785
:1025F00002F83C20FDF7FFFF0020FDF7FCFF4B2019
:10260000FDF7F9FF0020FDF7F6FF5D20FDF7F3FF72
:102610000020FDF7F0FF7420FDF7EDFF0020FDF72F
:10262000EAFF8420FDF7E7FF0020FDF7E4FF932099
:10263000FDF7E1FF0020FDF7DEFFA220FDF7DBFF45
:102640000020FDF7D8FFB320FDF7D5FF0020FDF7F0
:10265000D2FFBE20FDF7CFFF0020FDF7CCFFC42046
:10266000FDF7C9FF0020FDF7C6FFCD20FDF7C3FF32
:102670000020FDF7C0FFD320FDF7BDFF0020FDF7D0
:10268000BAFFDD20FDF7B7FF0020FDF7B4FFF32010
:10269000FDF7B1FF0020FDF7AEFFE520FDF7A2FF3B
:1026A0000020FDF7A8FF0020FDF7A5FF0020FDF7A3
:1026B000A2FF0020FDF79FFF0220FDF79CFF0020F6
:1026C000FDF799FF2920FDF796FF0020FDF793FF06
:1026D0003C20FDF790FF0020FDF78DFF4B20FDF71C
:1026E0008AFF0020FDF787FF5D20FDF784FF0020B3
:1026F000FDF781FF7420FDF77EFF0020FDF77BFFD3
:102700008420FDF778FF0020FDF775FF9320FDF78B
:1027100072FF0020FDF76FFFA220FDF76CFF002085
:10272000FDF769FFB320FDF766FF0020FDF763FFAB
:10273000BE20FDF760FF0020FDF75DFFC420FDF720
:102740005AFF0020FDF757FFCD20FDF754FF002072
:10275000FDF751FFD320FDF74EFF0020FDF74BFFA3
:10276000DC20FDF748FF0020FDF745FFF320FDF7D3
:1027700042FF0020FDF73FFFE620FDF733FF112069
:10278000FDF739FF0020FDF736FF3420FDF733FF5A
:102790000020FDF730FF5620FDF72DFF0020FDF74C
:1027A0002AFF7620FDF727FF0020FDF724FF772082
:1027B000FDF721FF0020FDF71EFF6620FDF71BFF40
:1027C0000020FDF718FF8820FDF715FF0020FDF71A
:1027D00012FF9920FDF70FFF0020FDF70CFFBB2033
:1027E000FDF709FF0020FDF706FF9920FDF703FF25
:1027F0000020FDF700FF6620FDF7FDFE0020FDF73D
:10280000FAFE5520FDF7F7FE0020FDF7F4FE5520F7
:10281000FDF7F1FE0020FDF7EEFE4520FDF7EBFE93
:102820000020FDF7E8FE4320FDF7E5FE0020FDF760
:10283000E2FE4420FDF7DFFE0020FDF7DCFEE7208E
:10284000FDF7D0FE3220FDF7D6FE0020FDF7D3FEC7
:102850005520FDF7D0FE0020FDF7CDFE7620FDF7D8
:10286000CAFE0020FDF7C7FE6620FDF7C4FE00206B
:10287000FDF7C1FE6720FDF7BEFE0020FDF7BBFEA1
:102880006720FDF7B8FE0020FDF7B5FE8720FDF7B5
:10289000B2FE0020FDF7AFFE9920FDF7ACFE002050
:1028A000FDF7A9FEBB20FDF7A6FE0020FDF7A3FE65
:1028B0009920FDF7A0FE0020FDF79DFE7720FDF793
:1028C0009AFE0020FDF797FE4420FDF794FE0020BD
:1028D000FDF791FE5620FDF78EFE0020FDF78BFEE2
:1028E0002320FDF788FE0020FDF785FE3320FDF74D
:1028F00082FE0020FDF77FFE4520FDF77CFE0020D4
:10290000FDF779FEE820FDF76DFE0020FDF773FE70
:102910000020FDF770FE9920FDF76DFE0020FDF709
:102920006AFE8720FDF767FE0020FDF764FE882021
:10293000FDF761FE0020FDF75EFE7720FDF75BFEF0
:102940000020FDF758FE6620FDF755FE0020FDF73C
:1029500052FE8820FDF74FFE0020FDF74CFEAA2016
:10296000FDF749FE0020FDF746FEBB20FDF743FEC4
:102970000020FDF740FE9920FDF73DFE0020FDF709
:102980003AFE6620FDF737FE0020FDF734FE5520A5
:10299000FDF731FE0020FDF72EFE5520FDF72BFE42
:1029A0000020FDF728FE4420FDF725FE0020FDF75E
:1029B00022FE4420FDF71FFE0020FDF71CFE5520DF
:1029C000FDF719FE0020FDF716FEE920FDF70AFECF
:1029D000AA20FDF710FE0020FDF70DFE0020FDF7F8
:1029E0000AFE0020FDF707FE0020FDF7FBFDAA20F0
:1029F000FDF701FECF20FDF7F5FD0020FDF7FBFD03
:102A00000020FDF7F8FD0020FDF7F5FD0020FDF7A3
:102A1000F2FD0020FDF7EFFD0020FDF7ECFD0020AA
:102A2000FDF7E9FD0020FDF7E6FD0020FDF7E3FDE1
:102A30000020FDF7E0FD0020FDF7DDFD0020FDF7A3
:102A4000DAFD0020FDF7D7FD0020FDF7D4FD0020C2
:102A5000FDF7D1FD0020FDF7CEFD0020FDF7CBFDF9
:102A6000F020FDF7BFFD0020FDF7C5FD5020FDF76C
:102A7000C2FD0020FDF7BFFD0020FDF7BCFD0020DA
:102A8000FDF7B9FDF320FDF7ADFD0020FDF7B3FD27
:102A9000F920FDF7A7FD0620FDF7ADFD1020FDF79D
:102AA000AAFD2920FDF7A7FD0020FDF7A4FD3A208F
:102AB000FDF798FD5520FDF79EFD1120FDF792FDD5
:102AC000642003F071FE2920FDF78CFD3520FDF711
:102AD00089FD0020FDF78FFD5120FDF783FDFF20CC
:102AE000FDF789FD5320FDF77DFD2C20FDF783FDCB
:102AF0005520FDF777FD8220FDF77DFD2C20FDF7A9
:102B000071FD02F0E9B8FE48808845F21051884214
:102B10007ED155214FF47040FDF77FFDAA214FF281
:102B20000100FDF77AFD52214FF20200FDF775FD1D
:102B300008214FF20300FDF770FD01214FF2040060
:102B4000FDF76BFD0D214FF43040FDF766FD0D21C3
:102B50004BF20100FDF761FD0D214BF20200FDF784
:102B60005CFD34214FF43640FDF757FD34214BF224
:102B70000160FDF752FD34214BF20260FDF74DFD7F
:102B80000D214FF43140FDF748FD0D214BF20110AE
:102B9000FDF743FD0D214BF20210FDF73EFD342100
:102BA0004FF43740FDF739FD34214BF20170FDF74A
:102BB00034FD34214BF20270FDF72FFD00214FF45C
:102BC0003240FDF72AFD00214BF20120FDF725FDE3
:102BD00000214BF20220FDF720FD24214FF4384064
:102BE000FDF71BFD24214BF60100FDF716FD242106
:102BF0004BF60200FDF711FD01214FF43F40FDF7B8
:102C00000CFD0F214FF43340FDF707FD0F2100E0CD
:102C1000FEE34BF20130FDF700FD0F214BF20230D5
:102C2000FDF7FBFC34214FF43940FDF7F6FC34216D
:102C30004BF60110FDF7F1FC34214BF60210FDF7C5
:102C4000ECFC08214FF43540FDF7E7FC08214BF27E
:102C50000150FDF7E2FC08214BF20250FDF7DDFCCC
:102C600003214FF44240FDF7D8FC24214FF43A40B1
:102C7000FDF7D3FC24214BF60120FDF7CEFC2421E7
:102C80004BF60220FDF7C9FC00214FF43C40FDF754
:102C9000C4FC78214BF60140FDF7BFFC00214BF648
:102CA0000240FDF7BAFC00214FF43D40FDF7B5FCB2
:102CB00078214BF60150FDF7B0FC00214BF6025095
:102CC000FDF7ABFC00214FF43E40FDF7A6FC64216C
:102CD0004BF60160FDF7A1FC00214FF45140FDF7D8
:102CE0009CFC33214DF20110FDF797FC00214DF2C1
:102CF0000210FDF792FC34214DF20310FDF78DFC1C
:102D000000214DF20410FDF788FC3A214DF2051028
:102D1000FDF783FC00214DF20610FDF77EFC4A21F1
:102D20004DF20710FDF779FC00214DF20810FDF778
:102D300074FC5C214DF20910FDF76FFC00214DF28F
:102D40000A10FDF76AFC81214DF20B10FDF765FCBE
:102D500000214DF20C10FDF760FCA6214DF20D1084
:102D6000FDF75BFC00214DF20E10FDF756FCE5214E
:102D70004DF20F10FDF751FC01214DF21010FDF73F
:102D80004CFC13214DF21110FDF747FC01214DF2CF
:102D90001210FDF742FC54214DF21310FDF73DFCDB
:102DA00001214DF21410FDF738FC82214DF215106F
:102DB000FDF733FC01214DF21610FDF72EFCCA2160
:102DC0004DF21710FDF729FC02214DF21810FDF706
:102DD00024FC00214DF21910FDF71FFC02214DF2D9
:102DE0001A10FDF71AFC01214DF21B10FDF715FC1E
:102DF00002214DF21C10FDF710FC34214DF21D1084
:102E0000FDF70BFC02214DF21E10FDF706FC6721B9
:102E10004DF21F10FDF701FC02214DF22010FDF7CD
:102E2000FCFB84214DF22110FDF7F7FB02214DF24E
:102E30002210FDF7F2FBA4214DF22310FDF7EDFB6C
:102E400002214DF22410FDF7E8FBB7214DF22510C9
:102E5000FDF7E3FB02214DF22610FDF7DEFBCF214B
:102E60004DF22710FDF7D9FB02214DF22810FDF796
:102E7000D4FBDE214DF22910FDF7CFFB02214DF2EC
:102E80002A10FDF7CAFBF2214DF22B10FDF7C5FB0E
:102E900002214DF22C10FDF7C0FBFE214DF22D104A
:102EA000FDF7BBFB03214DF22E10FDF7B6FB102101
:102EB0004DF22F10FDF7B1FB03214DF23010FDF75D
:102EC000ACFB33214DF23110FDF7A7FB03214DF28E
:102ED0003210FDF7A2FB6D214DF23310FDF79DFB83
:102EE00000214FF45240FDF798FB33214DF20120B1
:102EF000FDF793FB00214DF20220FDF78EFB01E070
:102F00006000002034214DF20320FDF786FB0021F4
:102F10004DF20420FDF781FB3A214DF20520FDF72B
:102F20007CFB00214DF20620FDF777FB4A214DF294
:102F30000720FDF772FB00214DF20820FDF76DFB25
:102F40005C214DF20920FDF768FB00214DF20A20BB
:102F5000FDF763FB81214DF20B20FDF75EFB0021A5
:102F60004DF20C20FDF759FBA6214DF20D20FDF787
:102F700054FB00214DF20E20FDF74FFBE5214DF2F1
:102F80000F20FDF74AFB01214DF21020FDF745FB14
:102F900013214DF21120FDF740FB01214DF21220CB
:102FA000FDF73BFB54214DF21320FDF736FB0121C9
:102FB0004DF21420FDF731FB82214DF21520FDF773
:102FC0002CFB01214DF21620FDF727FBCA214DF203
:102FD0001720FDF722FB02214DF21820FDF71DFB03
:102FE00000214DF21920FDF718FB02214DF21A20A5
:102FF000FDF713FB01214DF21B20FDF70EFB022113
:103000004DF21C20FDF709FB34214DF21D20FDF788
:1030100004FB02214DF21E20FDF7FFFA67214DF25D
:103020001F20FDF7FAFA02214DF22020FDF7F5FAF4
:1030300084214DF22120FDF7F0FA02214DF22220E9
:10304000FDF7EBFAA4214DF22320FDF7E6FA022169
:103050004DF22420FDF7E1FAB7214DF22520FDF7CE
:10306000DCFA02214DF22620FDF7D7FACF214DF2EE
:103070002720FDF7D2FA02214DF22820FDF7CDFAE4
:10308000DE214DF22920FDF7C8FA02214DF22A2057
:10309000FDF7C3FAF2214DF22B20FDF7BEFA022113
:1030A0004DF22C20FDF7B9FAFE214DF22D20FDF74F
:1030B000B4FA03214DF22E20FDF7AFFA10214DF2A4
:1030C0002F20FDF7AAFA03214DF23020FDF7A5FAD3
:1030D00033214DF23120FDF7A0FA03214DF23220C9
:1030E000FDF79BFA6D214DF23320FDF796FA002192
:1030F0004FF45340FDF791FA33214DF20130FDF7C3
:103100008CFA00214DF20230FDF787FA34214DF29E
:103110000330FDF782FA00214DF20430FDF77DFA0D
:103120003A214DF20530FDF778FA00214DF20630D4
:10313000FDF773FA4A214DF20730FDF76EFA0021D0
:103140004DF20830FDF769FA5C214DF20930FDF7C8
:1031500064FA00214DF20A30FDF75FFA81214DF249
:103160000B30FDF75AFA00214DF20C30FDF755FAFD
:10317000A6214DF20D30FDF750FA00214DF20E3030
:10318000FDF74BFAE5214DF20F30FDF746FA01212C
:103190004DF21030FDF741FA13214DF21130FDF7D9
:1031A0003CFA01214DF21230FDF737FA54214DF26D
:1031B0001330FDF732FA01214DF21430FDF72DFAEC
:1031C00082214DF21530FDF728FA01214DF216301B
:1031D000FDF723FACA214DF21730FDF71EFA02213E
:1031E0004DF21830FDF719FA00214DF21930FDF7B4
:1031F00014FA02214DF21A30FDF70FFA01214DF2B7
:103200001B30FDF70AFA02214DF21C30FDF705FADA
:1032100034214DF21D30FDF700FA02214DF21E302F
:10322000FDF7FBF967214DF21F30FDF7F6F902219A
:103230004DF22030FDF7F1F984214DF22130FDF7F8
:10324000ECF902214DF22230FDF7E7F9A4214DF20D
:103250002330FDF7E2F902214DF22430FDF7DDF9CC
:10326000B7214DF22530FDF7D8F902214DF2263075
:10327000FDF7D3F9CF214DF22730FDF7CEF902212A
:103280004DF22830FDF7C9F9DE214DF22930FDF766
:10329000C4F902214DF22A30FDF7BFF9F2214DF2B7
:1032A0002B30FDF7BAF902214DF22C30FDF7B5F9BC
:1032B000FE214DF22D30FDF7B0F903214DF22E30F5
:1032C000FDF7ABF910214DF22F30FDF7A6F90321E0
:1032D0004DF23030FDF7A1F933214DF23130FDF7D9
:1032E0009CF903214DF23230FDF797F96D214DF233
:1032F0003330FDF792F900214FF45440FDF78DF97A
:1033000033214DF20140FDF788F900214DF20240D2
:10331000FDF783F934214DF20340FDF77EF90021DA
:103320004DF20440FDF779F93A214DF20540FDF7E1
:1033300074F900214DF20640FDF76FF94A214DF274
:103340000740FDF76AF900214DF20840FDF765F9E5
:103350005C214DF20940FDF760F900214DF20A4071
:10336000FDF75BF981214DF20B40FDF756F9002185
:103370004DF20C40FDF751F9A6214DF20D40FDF73D
:103380004CF900214DF20E40FDF747F9E5214DF2D1
:103390000F40FDF742F901214DF21040FDF73DF9D4
:1033A00013214DF21140FDF738F901214DF2124081
:1033B000FDF733F954214DF21340FDF72EF90121A9
:1033C0004DF21440FDF729F982214DF21540FDF729
:1033D00024F901214DF21640FDF71FF9CA214DF2E3
:1033E0001740FDF71AF902214DF21840FDF715F9C3
:1033F00000214DF21940FDF710F902214DF21A405B
:10340000FDF70BF901214DF21B40FDF706F900E035
:1034100004E302214DF21C40FDF7FFF834214DF288
:103420001D40FDF7FAF802214DF21E40FDF7F5F8B8
:1034300067214DF21F40FDF7F0F802214DF22040C8
:10344000FDF7EBF884214DF22140FDF7E6F802216B
:103450004DF22240FDF7E1F8A4214DF22340FDF7A3
:10346000DCF802214DF22440FDF7D7F8B7214DF2E8
:103470002540FDF7D2F802214DF22640FDF7CDF8A8
:10348000CF214DF22740FDF7C8F802214DF2284028
:10349000FDF7C3F8DE214DF22940FDF7BEF8022109
:1034A0004DF22A40FDF7B9F8F2214DF22B40FDF71D
:1034B000B4F802214DF22C40FDF7AFF8FE214DF299
:1034C0002D40FDF7AAF803214DF22E40FDF7A5F897
:1034D00010214DF22F40FDF7A0F803214DF23040AE
:1034E000FDF79BF833214DF23140FDF796F80321AB
:1034F0004DF23240FDF791F86D214DF23340FDF76A
:103500008CF800214FF45540FDF787F833214DF238
:103510000150FDF782F800214DF20250FDF77DF8D1
:1035200034214DF20350FDF778F800214DF204509C
:10353000FDF773F83A214DF20550FDF76EF80021C2
:103540004DF20650FDF769F84A214DF20750FDF79C
:1035500064F800214DF20850FDF75FF85C214DF250
:103560000950FDF75AF800214DF20A50FDF755F8C1
:1035700081214DF20B50FDF750F800214DF20C5017
:10358000FDF74BF8A6214DF20D50FDF746F800214E
:103590004DF20E50FDF741F8E5214DF20F50FDF7C9
:1035A0003CF801214DF21050FDF737F813214DF290
:1035B0001150FDF732F801214DF21250FDF72DF8B0
:1035C00054214DF21350FDF728F801214DF214500B
:1035D000FDF723F882214DF21550FDF71EF8012169
:1035E0004DF21650FDF719F8CA214DF21750FDF7AC
:1035F00014F802214DF21850FDF70FF800214DF29A
:103600001950FDF70AF802214DF21A50FDF705F89E
:1036100001214DF21B50FDF700F802214DF21C5024
:10362000FCF7FBFF34214DF21D50FCF7F6FF0221A1
:103630004DF21E50FCF7F1FF67214DF21F50FCF7D1
:10364000ECFF02214DF22050FCF7E7FF84214DF200
:103650002150FCF7E2FF02214DF22250FCF7DDFF82
:10366000A4214DF22350FCF7D8FF02214DF2245043
:10367000FCF7D3FFB7214DF22550FCF7CEFF022116
:103680004DF22650FCF7C9FFCF214DF22750FCF731
:10369000C4FF02214DF22850FCF7BFFFDE214DF29E
:1036A0002950FCF7BAFF02214DF22A50FCF7B5FF72
:1036B000F2214DF22B50FCF7B0FF02214DF22C50BD
:1036C000FCF7ABFFFE214DF22D50FCF7A6FF0321C6
:1036D0004DF22E50FCF7A1FF10214DF22F50FCF7B8
:1036E0009CFF03214DF23050FCF797FF33214DF240
:1036F0003150FCF792FF03214DF23250FCF78DFF61
:103700006D214DF23350FCF788FF00214FF45640F5
:10371000FCF783FF33214DF20160FCF77EFF0021AF
:103720004DF20260FCF779FF34214DF20360FCF7A3
:1037300074FF00214DF20460FCF76FFF3A214DF257
:103740000560FCF76AFF00214DF20660FCF765FF9B
:103750004A214DF20760FCF760FF00214DF208603E
:10376000FCF75BFF5C214DF20960FCF756FF00217E
:103770004DF20A60FCF751FF81214DF20B60FCF71E
:103780004CFF00214DF20C60FCF747FFA6214DF2E3
:103790000D60FCF742FF00214DF20E60FCF73DFF8B
:1037A000E5214DF20F60FCF738FF01214DF210606A
:1037B000FCF733FF13214DF21160FCF72EFF0121BE
:1037C0004DF21260FCF729FF54214DF21360FCF713
:1037D00024FF01214DF21460FCF71FFF82214DF2FE
:1037E0001560FCF71AFF01214DF21660FCF715FF7A
:1037F000CA214DF21760FCF710FF02214DF218604C
:10380000FCF70BFF00214DF21960FCF706FF0221C7
:103810004DF21A60FCF701FF01214DF21B60FCF72D
:10382000FCFE02214DF21C60FCF7F7FE34214DF244
:103830001D60FCF7F2FE02214DF21E60FCF7EDFE6A
:1038400067214DF21F60FCF7E8FE02214DF2206077
:10385000FCF7E3FE84214DF22160FCF7DEFE02213D
:103860004DF22260FCF7D9FEA4214DF22360FCF753
:10387000D4FE02214DF22460FCF7CFFEB7214DF2B9
:103880002560FCF7CAFE02214DF22660FCF7C5FE5A
:10389000CF214DF22760FCF7C0FE02214DF22860D7
:1038A000FCF7BBFEDE214DF22960FCF7B6FE0221DB
:1038B0004DF22A60FCF7B1FEF2214DF22B60FCF7CD
:1038C000ACFE02214DF22C60FCF7A7FEFE214DF26A
:1038D0002D60FCF7A2FE03214DF22E60FCF79DFE49
:1038E00010214DF22F60FCF798FE03214DF230605D
:1038F000FCF793FE33214DF23160FCF78EFE03217D
:103900004DF23260FCF789FE6D214DF23360FCF719
:1039100084FE55214FF47040FCF77FFEAA214FF240
:103920000100FCF77AFE52214FF20200FCF775FE0F
:1039300008214FF20300FCF770FE00214FF2040053
:10394000FCF76BFECC214FF43140FCF766FE002102
:103950004BF20110FCF761FE05214FF43640FCF7F5
:103960005CFE70214FF43740FCF757FE70214BF29C
:103970000170FCF752FE01214FF43840FCF74DFE78
:1039800003214BF60100FCF748FE03214BF6020031
:10399000FCF743FE03214BF60300FCF73EFE022139
:1039A0004FF43C40FCF739FE00214BF60140FCF798
:1039B00034FE00214BF60240FCF72FFED0214FF4DD
:1039C0004940FCF72AFE02214CF60110FCF725FEC7
:1039D00050214CF60210FCF720FE50214CF603104B
:1039E000FCF71BFE50214CF60410FCF716FE0021DC
:1039F0004FF45450FCF711FE55214FF46850FCF77A
:103A00000CFE4FF48850FCF7EDFD782002F084FEA8
:103A10004FF42450FCF7E6FD01F05EB9FE488088C3
:103A200049F2253188427DD147F6F001E520FCF7C7
:103A3000F4FD4FF480710120FCF7EFFD4FF4E061DD
:103A40000220FCF7EAFD41F230010320FCF7E5FD1E
:103A500000210420FCF7E1FD40F202210820FCF7E0
:103A6000DCFD00210920FCF7D8FD00210A20FCF72D
:103A7000D4FD00210C20FCF7D0FD00210D20FCF727
:103A8000CCFD00210F20FCF7C8FD00211020FCF721
:103A9000C4FD07211120FCF7C0FD00211220FCF716
:103AA000BCFD00211320FCF7B8FD00210720FCF726
:103AB000B4FD41F290611020FCF7AFFD40F22721E8
:103AC0001120FCF7AAFD9D211220FCF7A6FD4FF462
:103AD000C8511320FCF7A1FD25212920FCF79DFDED
:103AE0000D212B20FCF799FD07213020FCF795FDD7
:103AF00040F203313120FCF790FD03213220FCF726
:103B00008CFD40F206213520FCF787FD0821362088
:103B1000FCF783FD40F206413720FCF77EFD4FF4B1
:103B2000417100E058E03820FCF777FD072139208B
:103B3000FCF773FD40F202613C20FCF76EFD0821AA
:103B40003D20FCF76AFD00215020FCF766FDEF21C7
:103B50005120FCF762FD00215220FCF75EFD40F28F
:103B60003F115320FCF759FD4FF427416020FCF72B
:103B700054FD01216120FCF750FD00216A20FCF773
:103B80004CFD00218020FCF748FD00218120FCF73E
:103B900044FD00218220FCF740FD00218320FCF73A
:103BA0003CFD00218420FCF738FD00218520FCF736
:103BB00034FD10219020FCF730FD4FF4C0619220BD
:103BC000FCF72BFD40F233110720FCF726FD2221E4
:103BD0000020FCF722FD1FE78F48808849F228313A
:103BE00088427DD141F28F01EC20FCF716FD41F2B5
:103BF0003421EF20FCF711FD4FF480710120FCF718
:103C00000CFD4FF4E0610220FCF707FD41F23001AA
:103C10000320FCF702FD00210420FCF7FEFC40F22B
:103C200002210820FCF7F9FC00210920FCF7F5FC33
:103C300000210A20FCF7F1FC01210C20FCF7EDFC2F
:103C400000210D20FCF7E9FC00210F20FCF7E5FC2A
:103C500000211020FCF7E1FC07211120FCF7DDFC1E
:103C600000211220FCF7D9FC00211320FCF7D5FC21
:103C700001210720FCF7D1FC322002F095FD41F232
:103C800090411020FCF7C9FC40F227211120FCF7DD
:103C9000C4FC322002F088FD8A211220FCF7BDFC12
:103CA000322002F081FD4FF4D0511320FCF7B5FC17
:103CB00006212920FCF7B1FC0D212B20FCF7ADFCDF
:103CC000322002F071FD00212020FCF7A6FC00212B
:103CD0002120FCF7A2FC322002F066FD002100E06A
:103CE00075E03020FCF799FC40F204613120FCF7CC
:103CF00094FC40F205313220FCF78FFC0021352086
:103D0000FCF78BFC40F609413620FCF786FC4FF4AB
:103D100001713720FCF781FC40F201313820FCF7BB
:103D20007CFC40F207713920FCF777FC00213C2035
:103D3000FCF773FC40F60A213D20FCF76EFC3220B4
:103D400002F032FD00215020FCF767FCEF215120EA
:103D5000FCF763FC00215220FCF75FFC40F23F11AE
:103D60005320FCF75AFC4FF427416020FCF755FC28
:103D700001216120FCF751FC00216A20FCF74DFC79
:103D800000218020FCF749FC00218120FCF745FC44
:103D900000218220FCF741FC00218320FCF73DFC40
:103DA00000218420FCF739FC00218520FCF735FC3C
:103DB00010219020FCF731FC4FF4C0619220FCF7F9
:103DC0002CFC40F233110720FCF727FC24E61248B4
:103DD000808849F2203188427ED100210846FCF7D4
:103DE0001CFC4FF480710120FCF717FC4FF4E061DC
:103DF0000220FCF712FC41F230010320FCF70DFC1D
:103E000000210420FCF709FC40F202210820FCF705
:103E100004FC0021092001E060000020FCF7FDFB0C
:103E200000210A20FCF7F9FB01210C20FCF7F5FB2F
:103E300000210D20FCF7F1FB00210F20FCF7EDFB2A
:103E4000322002F0B1FC40F201110720FCF7E5FB43
:103E5000322002F0A9FC4FF486511020FCF7DDFB64
:103E600007211120FCF7D9FB4FF488711220FCF7D1
:103E7000D4FB4FF430611320FCF7CFFB0021292045
:103E8000FCF7CBFB44F210012B20FCF7C6FB002112
:103E90005020FCF7C2FBEF215120FCF7BEFB0021B4
:103EA0005220FCF7BAFB40F23F115320FCF7B5FB60
:103EB0004FF41C516020FCF7B0FB01216120FCF79E
:103EC000ACFB00216A20FCF7A8FB00218020FCF756
:103ED000A4FB0021812000E030E0FCF79EFB0021E4
:103EE0008220FCF79AFB00218320FCF796FB00213F
:103EF0008420FCF792FB00218520FCF78EFB10212B
:103F00009020FCF78AFB00219220FCF786FB012120
:103F10009320FCF782FB4FF488719520FCF77DFB22
:103F200000219720FCF779FB00219820FCF775FB16
:103F300040F273110720FCF770FB6DE5FE488088A6
:103F400049F2313188427DD141F21401E720FCF77A
:103F500064FB4FF480710120FCF75FFB4FF40071AC
:103F60000220FCF75AFB41F238010320FCF755FB15
:103F700040F202210820FCF750FB00210920FCF749
:103F80004CFB00210A20FCF748FB00210C20FCF729
:103F900044FB00210D20FCF740FB00210F20FCF723
:103FA0003CFB00211020FCF738FB07211120FCF717
:103FB00034FB00211220FCF730FB00211320FCF71A
:103FC0002CFBC82002F0F0FB41F290611020FCF7BE
:103FD00024FB40F227211120FCF71FFB322002F0C6
:103FE000E3FB0C211220FCF718FB322002F0DCFB73
:103FF0004FF400611320FCF710FB11212920FCF77E
:104000000CFB0B212B20FCF708FB322002F0CCFB31
:1040100000212020FCF701FB40F23F112120FCF79A
:10402000FCFA00213020FCF7F8FA4FF483713120BC
:10403000FCF7F3FA00213220FCF7EFFA4FF401719C
:10404000352000E064E0FCF7E8FA41F20A6136202E
:10405000FCF7E3FA40F207713720FCF7DEFA4FF481
:1040600083713820FCF7D9FA40F207713920FCF748
:10407000D4FA40F202413C20FCF7CFFA40F60F415F
:104080003D20FCF7CAFA00215020FCF7C6FAEF21C8
:104090005120FCF7C2FA00215220FCF7BEFA40F290
:1040A0003F115320FCF7B9FA4FF41C516020FCF784
:1040B000B4FA01216120FCF7B0FA00216A20FCF774
:1040C000ACFA00218020FCF7A8FA00218120FCF73F
:1040D000A4FA00218220FCF7A0FA00218320FCF73B
:1040E0009CFA00218420FCF798FA00218520FCF737
:1040F00094FA10219020FCF790FA4FF4C0619220BE
:10410000FCF78BFA40F233110720FCF786FA83E4C0
:104110008948808845F2084188427DD14FF48071FA
:104120000120FCF77AFA4FF4E0610220FCF775FAFF
:1041300041F230010320FCF770FA00210420FCF763
:104140006CFA40F207210820FCF767FA00210920E9
:10415000FCF763FA00210A20FCF75FFA00210C202B
:10416000FCF75BFA00210D20FCF757FA00210F2025
:10417000FCF753FA142002F017FB41F2B061102053
:10418000FCF74BFA01211120FCF747FA0121172017
:10419000FCF743FA4FF49C711220FCF73EFA4FF4FF
:1041A00000611320FCF739FA09212920FCF735FAC0
:1041B00009212A20FCF731FA0021A420FCF72DFA6E
:1041C00000215020FCF729FAEF215120FCF725FAB5
:1041D00000215220FCF721FA40F23F115320FCF756
:1041E0001CFA4FF41C516020FCF717FA01216120E2
:1041F000FCF713FA00216A20FCF70FFA0021802057
:10420000FCF70BFA00218120FCF707FA002182203D
:10421000FCF703FA002100E024E08320FCF7FDF91D
:1042200000218420FCF7F9F900218520FCF7F5F93D
:1042300013219020FCF7F1F900219220FCF7EDF911
:1042400003219320FCF7E9F94FF488719520FCF7DE
:10425000E4F940F273110720FCF7DFF9322002F095
:10426000A3FAB8E43448808841F2055188427DD1F0
:1042700000210720FCF7D1F9322002F095FA4FF423
:104280008E711220FCF7C9F90121A420FCF7C5F9B1
:104290000F210820FCF7C1F908210A20FCF7BDF91D
:1042A00008210D20FCF7B9F940F207713020FCF726
:1042B000B4F907213120FCF7B0F940F20361322054
:1042C000FCF7ABF94FF4E0613320FCF7A6F940F2BC
:1042D00002213420FCF7A1F902213520FCF79DF9D9
:1042E00041F60F713620FCF798F940F2077137203C
:1042F000FCF793F900213820FCF78FF900213920D1
:10430000FCF78BF940F207713A20FCF786F900219F
:104310003B20FCF782F907213C20FCF77EF90021C5
:104320003D20FCF77AF9322002F03EFA0121072005
:10433000FCF773F9012101E0600000201720FCF771
:104340006CF9322002F030FA4FF4BD511020FCF726
:1043500064F940F217211120FCF75FF94FF48F71D7
:104360001220FCF75AF94FF4706100E098E0132036
:10437000FCF753F900212A20FCF74FF90A212920E4
:10438000FCF74BF94FF49F711220FCF746F900211E
:104390005020FCF742F9EF215120FCF73EF90021B3
:1043A0005220FCF73AF940F23F115320FCF735F95F
:1043B0004FF41C516020FCF730F901216120FCF71B
:1043C0002CF900216A20FCF728F900218020FCF755
:1043D00024F900218120FCF720F900218220FCF73C
:1043E0001CF900218320FCF718F900218420FCF738
:1043F00014F900218520FCF710F913219020FCF717
:104400000CF94FF440719220FCF707F90521932035
:10441000FCF703F900219520FCF7FFF80021972015
:10442000FCF7FBF800219820FCF7F7F84FF48071B7
:104430000120FCF7F2F84FF4E0610220FCF7EDF800
:1044400041F238010320FCF7E8F800210420FCF7D2
:10445000E4F800210C20FCF7E0F800210F20FCF725
:10446000DCF800212020FCF7D8F800212120FCF7FF
:10447000D4F821210720FCF7D0F8142002F094F999
:1044800061210720FCF7C9F8142002F08DF940F2F1
:1044900073110720FCF7C1F8142002F085F995E4A8
:1044A000FE4880884BF2055188427CD100210846A5
:1044B000FCF7B3F800210846FCF7AFF800210846E6
:1044C000FCF7ABF800210846FCF7A7F80121A4206F
:1044D000FCF7A3F8142002F067F94FF41C51602098
:1044E000FCF79BF840F202210820FCF796F84FF405
:1044F00005713020FCF791F843F215713120FCF77B
:104500008CF840F204613220FCF787F840F616611F
:104510003320FCF782F842F211213420FCF77DF8B9
:104520004FF4A8513520FCF778F848F207513620AF
:10453000FCF773F841F207413720FCF76EF841F2BF
:1045400003413820FCF769F820213920FCF765F891
:104550001A219020FCF761F800211020FCF75DF88B
:1045600007211120FCF759F800211220FCF755F81B
:1045700000211320FCF751F8142002F015F94FF434
:10458000E6611020FCF749F840F237111120FCF7E2
:1045900044F8142002F008F94FF4DC711220FCF703
:1045A0003CF8142000E085E002F0FEF84FF4706162
:1045B0001320FCF732F880212A20FCF72EF848213E
:1045C0002920FCF72AF8142002F0EEF84FF480714D
:1045D0000120FCF722F84FF4E0610220FCF71DF8FF
:1045E00041F238010320FCF718F840F202210820BC
:1045F000FCF713F800210A20FCF70FF800210C202B
:10460000FCF70BF800210D20FCF707F830210E20F5
:10461000FCF703F800215020FBF7FFFFEF215120AA
:10462000FBF7FBFF00215220FBF7F7FF40F23F11A1
:104630005320FBF7F2FF4FF41C516020FBF7EDFF16
:1046400001216120FBF7E9FF00216A20FBF7E5FF6C
:1046500011219020FBF7E1FF4FF4C0619220FBF79E
:10466000DCFF40F202419320FBF7D7FF02219420A8
:10467000FBF7D3FF142002F097F801210720FBF786
:10468000CCFF142002F090F861210720FBF7C5FF52
:1046900040F273110720FBF7C0FF00212020FBF739
:1046A000BCFF00212120FBF7B8FF22210020FBF7EF
:1046B000B4FF11E3794880884CF2055188427CD1DF
:1046C00000210846FBF7A9FF00210846FBF7A5FFDC
:1046D000142002F069F800210846FBF79EFF002134
:1046E0000846FBF79AFF00210846FBF796FF0021DA
:1046F0000846FBF792FF0121A420FBF78EFF142050
:1047000002F052F84FF41C516020FBF786FF40F690
:1047100006010820FBF781FF40F203713020FBF710
:104720007CFF01213120FBF778FF04213220FBF7C9
:1047300074FF4FF481713320FBF76FFF4FF440712A
:104740003420FBF76AFF40F203113520FBF765FFC9
:104750001F213620FBF761FF40F203713720FBF782
:104760005CFF01213820FBF758FF04213920FBF7BB
:1047700054FF15219020FBF750FF4FF48261102069
:10478000FBF74BFF40F247211120FBF746FF4FF4A8
:10479000DE711220FBF741FF4FF460611320FBF73D
:1047A0003CFF782002F000F84FF480710120FBF705
:1047B00034FF4FF40071022000E052E0FBF72DFFC0
:1047C00041F230010320FBF728FF08210A20FBF704
:1047D00024FF00210C20FBF720FF20210E20FBF7F7
:1047E0001CFF00210F20FBF718FF00212020FBF702
:1047F00014FF00212120FBF710FF3D212A20FBF7A9
:104800000CFF142001F0D0FF2D212920FBF705FF1C
:1048100000215020FBF701FF4DF2EF015120FBF783
:10482000FCFE00215220FBF7F8FE40F23F1153201E
:10483000FBF7F3FE00216120FBF7EFFE00216A2069
:10484000FBF7EBFE4FF440719220FBF7E6FE0521EB
:104850009320FBF7E2FE4FF480710720FBF7DDFEAB
:104860003AE20E48808844F2315188427ED10121DB
:104870000020FBF7D2FE0A2001F096FF41F22861EA
:104880001020FBF7CAFE0E211220FBF7C6FE40F6F1
:1048900039211320FBF7C1FE0A2001E0600000204F
:1048A00001F082FF40211120FBF7B7FE50211520B7
:1048B000FBF7B3FE0A2001F077FF1E211220FBF761
:1048C000ACFE0A2001F070FF4FF4B1511020FBF74D
:1048D000A4FE42F639211320FBF79FFE0A2001F0C7
:1048E00063FF4FF480710120FBF797FE4FF4407196
:1048F0000220FBF792FE41F238010320FBF78DFE08
:1049000040F202210820FBF788FE08210A20FBF76D
:1049100084FE00213020FBF780FE40F2024131206E
:10492000FBF77BFE4FF483713220FBF776FE40F2FB
:1049300003513320FBF771FE4FF482713420FBF7F3
:104940006CFE40F201313520FBF767FE40F2077143
:104950003620FBF762FE40F205313720FBF75DFEA3
:104960004FF402713820FBF758FE00E03EE040F6BD
:104970000B713920FBF751FE02214120FBF74DFE60
:104980004FF41C516020FBF748FE01216120FBF72A
:1049900044FE4FF404719020FBF73FFE4FF4857105
:1049A0009220FBF73AFE04219320FBF736FE4FF4EA
:1049B0008071A020FBF731FE01210720FBF72DFEBF
:1049C00021210720FBF729FE23210720FBF725FEE5
:1049D00033210720FBF721FE40F233110720FBF7BC
:1049E0001CFE0021A020FBF718FE75E1F748808827
:1049F00044F2355188427CD130211520FBF70DFE61
:104A000010219A20FBF709FE20211120FBF705FE5B
:104A100043F228411020FBF700FE02211220FBF791
:104A2000FCFD41F238011320FBF7F7FD282001F0CF
:104A3000BBFE12210846FBF7F0FD282001F0B4FE72
:104A400043F220411020FBF7E8FD43F23801132028
:104A5000FBF7E3FD462001F0A7FE00213020FBF725
:104A6000DCFD40F202413120FBF7D7FD40F2073177
:104A70003220FBF7D2FD4FF441713320FBF7CDFD1F
:104A800004213420FBF7C9FD40F201413520FBF73A
:104A9000C4FD40F207713620FBF7BFFD40F205313F
:104AA0003720FBF7BAFD4FF4C2613820FBF7B5FDA4
:104AB0004FF4C2613920FBF7B0FD4FF48071012043
:104AC000FBF7ABFD4FF440710220FBF7A6FD41F26E
:104AD00030010320FBF7A1FD40F608010820FBF799
:104AE0009CFD08210A20FBF798FD4FF41C51602023
:104AF00000E033E0FBF791FD01216120FBF78DFD24
:104B00004FF49F719020FBF788FD4FF48071922045
:104B1000FBF783FD4FF480719320FBF77EFD4FF48C
:104B20004051A020FBF779FD1021A320FBF775FD74
:104B300001210720FBF771FD21210720FBF76DFD07
:104B400023210720FBF769FD33210720FBF765FDD3
:104B500040F233110720FBF760FDBDE09B488088E1
:104B600041F663118842F8D1E220FBF73BFD1D209E
:104B7000FBF741FD0220FBF73EFD0420FBF73BFD68
:104B8000642001F0C9FDE020FBF72CFD0120FBF7BC
:104B900032FD0A2001F008FEE020FBF723FD032090
:104BA000FBF729FD0C2001F0FFFD0120FBF71AFDAA
:104BB0000A2001F0F9FDE620FBF714FD2F20FBF79A
:104BC0001AFDFF20FBF717FDFF20FBF714FDB020B7
:104BD000FBF708FD2020FBF70EFD0020FBF70BFD87
:104BE0000320FBF708FD40F21F30FBF704FD012016
:104BF000FBF701FD40F2DF10FBF7FDFC0020FBF7A7
:104C0000FAFCB420FBF7EEFC0420FBF7F4FC40F2C6
:104C10001F40FBF7F0FC0020FBF7EDFC2E20FBF71C
:104C2000EAFC0020FBF7E7FC0020FBF7E4FC002097
:104C3000FBF7E1FC0020FBF7DEFCB620FBF7D2FC23
:104C40000220FBF7D8FC4FF40370FBF7D4FC0020E4
:104C5000FBF7D1FC1720FBF7CEFC1520FBF7CBFCB4
:104C60000020FBF7C8FC0020FBF7C5FCF020FBF799
:104C7000B9FC0320FBF7BFFC2920FBF7B3FCD020D5
:104C8000FBF7B0FC0020FBF7B6FCBE20FBF7AAFC4C
:104C90000520FBF7B0FCFE20FBF7ADFC0120FBF785
:104CA000AAFC0020FBF7A7FC0020FBF7A4FC0020D7
:104CB000FBF7A1FCB820FBF795FC0320FBF79BFC5E
:104CC0000120FBF798FCBA20FBF78CFC0120FBF7D6
:104CD00092FC6420FCF7FAF80020FCF723F901208D
:104CE0003B4908604FF6FF70FCF70BFB21B000BD9D
:104CF0002DE9FC4F05460E4617469846DDF82C90E8
:104D0000002001903148808846F60401884229D16C
:104D10002E488079012825D1AB4635462B4800889E
:104D2000C01B401E86B2474628480088A0EB0B00F7
:104D3000401E1FFA80F80020244988712A204881EB
:104D40002B20888143463A4631462846CDF80090CC
:104D5000FFF7CEFF01201D4988712B2048812A20B2
:104D600088811DE0781B401C80B20190344615E01C
:104D700021462846FBF780FCFBF761FC4FF0000A58
:104D800007E04FF0D840A0F880900AF101001FFA28
:104D900080FA01988245F4DB601C84B24445E7DD6B
:104DA000BDE8FC8F2DE9F84F07460D469046994621
:104DB000DDF828B0A8EB0700401C1FFA80FAA9EB29
:104DC0000500401C80B20090002418E06000002024
:104DD000BC824042281981B23846FBF74DFCFBF7F4
:104DE0002EFC002607E004FB0A603BF81000FC499B
:104DF0000880701C86B25645F5DB601C84B20098B2
:104E00008442E7DBBDE8F88F2DE9FF4F84B081468F
:104E10008A460020039002900698A0EB09050798A7
:104E2000A0EB0A06CDF80490CDF800A0002D01DD1E
:104E3000012705E00DB9002702E04FF0FF376D4272
:104E4000002E02DD4FF0010806E016B94FF0000811
:104E500002E04FF0FF387642B54201DD2C4600E01B
:104E600034464FF0000B21E0009A91B2019A90B2C3
:104E7000FBF75CFF039828440390029830440290AB
:104E80000398A04205DD0398001B03900198384465
:104E900001900298A04205DD0298001B0290009844
:104EA000404400900BF101001FFA80FB601C834519
:104EB000DADD08B0BDE8F08FF0B504460D461646C1
:104EC0001F462B46324629462046FFF79DFF3B46AC
:104ED000224629462046FFF797FF3B463246394691
:104EE0002046FFF791FF3B46324629463046FFF702
:104EF0008BFFF0BD2DE9F04306460F469046002497
:104F000045460320A0EB48093CE07A1B91B23219D8
:104F100090B2FBF70BFF3A1B91B2721990B2FBF7FC
:104F200005FF3A1991B2721990B2FBF7FFFE7A1998
:104F300091B2321990B2FBF7F9FE7A1991B2321B95
:104F400090B2FBF7F3FE3A1991B2721B90B2FBF7E5
:104F5000EDFE7A1B91B2321B90B2FBF7E7FE3A1BD3
:104F600091B2721B90B2FBF7E1FE641CB9F1000F25
:104F700003DAA000801D814404E0601B80000A3039
:104F800081446D1EAC42C0DDBDE8F0832DE9F84FD1
:104F900080460F4616461C46BB462046E31704EBE8
:104FA0005373DB1021464FEAE47C04EB5C7C4FEA50
:104FB000EC0CA4EBCC0CBCF1000F02D04FF0010CB8
:104FC00001E04FF0000C6344224604EBD27C4FEA30
:104FD0006C0C03FB0CF3DBB20093A6F12000C6B20D
:104FE00000255EE00C2C07D106EB46007D4901EB65
:104FF000800010F805901BE0102C05D17A4800EBDA
:10500000061010F8059013E0182C07D106EBC60027
:10501000764901EB800010F8059009E0202C05D1BD
:10502000734800EB861010F8059001E0BDE8F88F9A
:105030004FF0000A2FE009F0800030B16D4802887F
:1050400039464046FBF780FE07E00A9828B96A48CF
:10505000028839464046FBF777FE4FEA49604FEA3F
:105060001069781C87B265484088B84200DCDDE7EB
:10507000A7EB0B00A0420AD15F4608F101001FFA1E
:1050800080F85E480088404500DCCFE706E00AF182
:10509000010000F0FF0ABAF1080FCCDB00BF681C6A
:1050A000C5B2009885429DDB00BFBFE710B5024640
:1050B000012000E050430B1EA1F10104E1B2F9D13F
:1050C00010BD2DE9FF4F81B0074691461E460E9D4B
:1050D0004FF0000A002439E0301B401EC1B20A2004
:1050E000FFF7E4FFB9FBF0F00A21B0FBF1F201FB9E
:1050F0001208BAF1000F16D1701EA04213DDB8F1EC
:10510000000F0ED10020AB4605EBDB71491001FB0F
:105110000471009088B22B4620220299FFF736FFD7
:1051200012E04FF0010A0020AB4605EBDB7149109D
:1051300001FB0471009088B208F13001CAB22B461D
:105140000299FFF723FF00BF601CC4B2B442C3DB67
:1051500005B0BDE8F08F2DE9FF4F82B006469246BC
:105160001F46DDE90F480020019000255EE0781B16
:10517000401EC1B20A20FFF799FFBAFBF0F00A21E6
:10518000B0FBF1F201FB1209019840BB781EA84266
:1051900038DDB9F1000F33D108F0800078B108F0A4
:1051A0000100A34604EBDB71491001FB056100908F
:1051B00088B2234630220399FFF7E8FE0EE008F09C
:1051C0000100A34604EBDB71491001FB056100906F
:1051D00088B2234620220399FFF7D8FE24E011E08D
:1051E0008000006C989100080C960008FC9B000859
:1051F00058A90008140000201600002060000020BC
:105200000120019008F00100A34604EBDB71491076
:1052100001FB0561009088B209F13001CAB2234652
:105220000399FFF7B3FE00BF681CC5B2BD429EDB09
:1052300006B0BDE8F08F2DE9F84704460D469046CC
:105240009946DDE9096704F0FF0A08EB04001FFA3C
:1052500080F809EB05001FFA80F916E0444502DBEF
:105260005446A81985B24D4500DB14E0002000909B
:105270003A78334629462046FFF788FE304606EB4B
:10528000D07104EB61018CB27F1C38787E2802DC7F
:1052900038782028E2DA00BFBDE8F8872DE9F84F1A
:1052A00004460D4690469946DDE90B7A0A9E04F0C5
:1052B000FF0B08EB04001FFA80F809EB05001FFA4A
:1052C00080F916E0444502DB5C46A81985B24D45DD
:1052D00000DB14E0CDF800A03A783346294620469A
:1052E000FFF754FE304606EBD07104EB61018CB23F
:1052F0007F1C38787E2802DC38782028E2DA00BF6C
:10530000BDE8F88F2DE9FF5F2DED020B2DED0E8B23
:10531000A4B0B0EE408AF0EE608A429D0026B1460D
:10532000002023909FEDFE0B53EC102B51EC180B3B
:1053300003F0C0FC2ED2012651EC180B03F0B4F997
:1053400003F0EEFE074688460A203699FFF7AEFEC8
:10535000029003F056FC41EC1A0B3846414603F02C
:1053600063FC9FEDF10B53EC102B03F0DFFC41ECE1
:105370001C0B51EC180B03F097F953EC1C2B03F0AA
:10538000DFFD53EC1A2B03F0D1FC03F0C9FE82467B
:105390008B4624E051EC180B03F0C2FE074688460A
:1053A0000A203699FFF782FE029003F02AFC41ECB6
:1053B0001A0B3846414603F037FC9FEDDB0B53ECEC
:1053C000102B03F0B3FC53EC182B03F0ADFD53ECA2
:1053D0001A2B03F0ABFC03F0A3FE82468B4600BF02
:1053E0000A2200233846414602F0BDFF4846411CD0
:1053F00001F0FF0913A90A540A2200233846414646
:1054000002F0B1FF07468846002187EA010088EADA
:1054100001010843E4D1239015E00A2200235046FD
:10542000594602F0A0FFD1B203AA239811540A22D0
:1054300000235046594602F096FF82468B46239839
:10544000401CC0B22390369923988842E5DB3EB1D8
:1054500000202B462D220090DDE93401FFF796FD58
:1054600034465CE009EB0600A04216DD0020A9F1FD
:105470000101A31BC91A13AB0090595C3031CAB2A9
:1054800005EBD5714B100295349903FB041188B2DA
:105490002B463599FFF77AFD3FE009EB0600A04265
:1054A0000FD1002005EBD5714A1002950090349978
:1054B00002FB041188B22B462E223599FFF766FDB8
:1054C0002BE023984844401C3044A04216DD0020C5
:1054D000009023994944A31BC91A03AB595C30318E
:1054E000CAB205EBD5714B100295349903FB041138
:1054F00088B22B463599FFF749FD0EE0002005EBF9
:10550000D5714A1002950090349902FB041188B2BB
:105510002B4620223599FFF739FD601CC4B237981D
:1055200084429FDB24B0BDEC0E8B06B0BDE8F09F3B
:105530002DE9FF5F2DED020B2DED0E8BA4B0B0EE2B
:10554000408AF0EE608A429D0026B14600202390FA
:105550009FED730B53EC102B51EC180B03F0AAFBCF
:105560002ED2012651EC180B03F09EF803F0D8FD63
:10557000074688460A203699FFF798FD029003F007
:1055800040FB41EC1A0B3846414603F04DFB9FEDC2
:10559000660B53EC102B03F0C9FB41EC1C0B51ECD8
:1055A000180B03F081F853EC1C2B03F0C9FC53ECEF
:1055B0001A2B03F0BBFB03F0B3FD82468B4624E0BD
:1055C00051EC180B03F0ACFD074688460A203699CB
:1055D000FFF76CFD029003F014FB41EC1A0B384608
:1055E000414603F021FB9FED500B53EC102B03F0D1
:1055F0009DFB53EC182B03F097FC53EC1A2B03F094
:1056000095FB03F08DFD82468B4600BF0A220023E6
:105610003846414602F0A7FE4846411C01F0FF090A
:1056200013A90A540A2200233846414602F09BFE81
:1056300007468846002187EA010088EA01010843FD
:10564000E4D1239015E00A2200235046594602F087
:105650008AFED1B203AA239811540A22002350468D
:10566000594602F080FE82468B462398401CC0B209
:105670002390369923988842E5DB3EB100202B46E3
:105680002D220090DDE93401FFF780FC344665E00F
:1056900009EB0600A04216DD4398A9F10101A31B06
:1056A000C91A13AB0090595C3031CAB205EBD57101
:1056B0004B100295349903FB041188B22B4635999F
:1056C000FFF764FC48E009EB0600A0420FD14398C5
:1056D00005EBD5714A1002950090349902FB041134
:1056E00088B22B462E223599FFF750FC34E02398E0
:1056F0004844401C3044A0421FDD43980090239949
:105700004944A31BC91A03AB595C3031CAB205EB3B
:10571000D5714B100295349903FB041188B207E050
:105720000000000000000000000000000000F03F4A
:105730002B463599FFF72AFC0EE0439805EBD5710F
:105740004A1002950090349902FB041188B22B464E
:1057500020223599FFF71AFC601CC4B237988442A6
:1057600096DB24B0BDEC0E8B06B0BDE8F09F2DE9B2
:10577000F0472DED068B82B006460C4690469946C2
:10578000109D05FB086082B2234621463046FFF794
:105790003BFB05FB194083B2324621463046FFF7FA
:1057A00033FB05FB08639AB2E31D99B205FB08635E
:1057B0000A3B98B22346FFF727FB05FB08639AB222
:1057C000E31F99B205FB08630A3B98B22346FFF733
:1057D0001BFB05FB194293B205FB19420A3291B239
:1057E000F21D90B23246FFF70FFB05FB194293B250
:1057F00005FB19420A3291B2F21F90B23246FFF70E
:1058000003FB102004F10A0291B2A6F10A020090F3
:1058100090B201230022FFF754FC42A0102104F1B2
:105820000A02CDE9001091B205FB086290B2202374
:105830001A46FFF700FD3CA0102105FB1942CDE9F7
:10584000001091B2A6F10F0290B220231A46FFF782
:10585000F2FC012739E0A4F1050C1FFA8CF305FBDB
:10586000076C1FFA8CF204F1050C1FFA8CF105FB92
:10587000076C1FFA8CF0FFF7C7FA384603F059F9A6
:1058800041EC1A0B9FED290B53EC102B03F04EFA51
:1058900041EC190B9FED270B53EC102B02F010FF7E
:1058A00041EC180B03F018F982460020102104F196
:1058B0000C02CDE9001091B205FB0762083A90B2E4
:1058C00003235246FFF747FC7F1C4745C3DB0127F4
:1058D0000BE005FB174083B2701D82B205FB174039
:1058E00081B23046FFF790FA7F1C4F45F1DB02B0E2
:1058F000BDEC068BBDE8F08730B50346C3EB431023
:10590000FF2490FBF4F0C002C1EB8114FF2594FB4F
:10591000F5F400EB4410C2EB421494FBF5F4204480
:1059200080B230BD78000000790000000000000067
:1059300000001040000000000000544010B5C820D6
:1059400000F0EAFE4FF4807002F0C6FA18B14FF48E
:10595000807002F0CCFA10BD10B588B0002400BFF2
:1059600014E00120694601EBC4010871002069467A
:1059700001EBC40188710320694601EBC401487141
:105980000220694601EBC401C871641C042CE8DBE9
:1059900008200090000302904010049040100690F0
:1059A0006946F74801F0DAF802A9F64801F0D6F89E
:1059B00004A9F44801F0D2F806A9F24801F0CEF8A3
:1059C0000821EF4801F048F94FF40041ED4801F09B
:1059D00043F94FF48041EB4801F03EF94FF4005198
:1059E000E84801F039F908B010BD10B588B00024BE
:1059F00000BF0FE00020694601EBC40108710320DD
:105A0000694601EBC40148710120694601EBC401FC
:105A1000C871641C042CEDDB8020009040200290B3
:105A200020200490102006906946D54801F096F891
:105A300002A9D34801F092F804A9D14801F08EF8E8
:105A400006A9CF4801F08AF808B010BD10B5FFF7DD
:105A5000CCFFFFF781FF10BD10B500240821C84816
:105A600001F0DEF810B9C84804791BE04FF400419A
:105A7000C44801F0D5F810B9C348447912E04FF496
:105A80008041C04801F0CCF810B9BF48847909E0E2
:105A90004FF40051BB4801F0C3F810B9BA48C479BB
:105AA00000E00024204610BD10B588B0002400BFDF
:105AB00014E00120694601EBC40108710320694626
:105AC00001EBC40148710020694601EBC4018871F3
:105AD0000220694601EBC401C871641C042CE8DB98
